{
  "contractName": "ERC20AMR",
  "abi": [
    {
      "inputs": [
        {
          "internalType": "contract WVerifier",
          "name": "_withdrawVerifier",
          "type": "address"
        },
        {
          "internalType": "contract RVerifier",
          "name": "_rewardVerifier",
          "type": "address"
        },
        {
          "internalType": "uint256",
          "name": "_d_denomination",
          "type": "uint256"
        },
        {
          "internalType": "uint256",
          "name": "_r_denomination",
          "type": "uint256"
        },
        {
          "internalType": "uint32",
          "name": "_merkleTreeHeight",
          "type": "uint32"
        },
        {
          "internalType": "uint32",
          "name": "_blockCount",
          "type": "uint32"
        },
        {
          "internalType": "address",
          "name": "_operator",
          "type": "address"
        },
        {
          "internalType": "address",
          "name": "_token",
          "type": "address"
        }
      ],
      "payable": false,
      "stateMutability": "nonpayable",
      "type": "constructor"
    },
    {
      "anonymous": false,
      "inputs": [
        {
          "indexed": true,
          "internalType": "bytes32",
          "name": "commitment",
          "type": "bytes32"
        },
        {
          "indexed": false,
          "internalType": "uint32",
          "name": "leafIndex",
          "type": "uint32"
        },
        {
          "indexed": false,
          "internalType": "uint256",
          "name": "timestamp",
          "type": "uint256"
        }
      ],
      "name": "Deposit",
      "type": "event"
    },
    {
      "anonymous": false,
      "inputs": [
        {
          "indexed": false,
          "internalType": "address",
          "name": "to",
          "type": "address"
        },
        {
          "indexed": false,
          "internalType": "bytes32",
          "name": "rewardNullifierHash",
          "type": "bytes32"
        },
        {
          "indexed": true,
          "internalType": "address",
          "name": "relayer",
          "type": "address"
        },
        {
          "indexed": false,
          "internalType": "uint256",
          "name": "fee",
          "type": "uint256"
        }
      ],
      "name": "Reward",
      "type": "event"
    },
    {
      "anonymous": false,
      "inputs": [
        {
          "indexed": false,
          "internalType": "uint32",
          "name": "updateAtBlock",
          "type": "uint32"
        }
      ],
      "name": "RewardUpdate",
      "type": "event"
    },
    {
      "anonymous": false,
      "inputs": [
        {
          "indexed": false,
          "internalType": "address",
          "name": "to",
          "type": "address"
        },
        {
          "indexed": false,
          "internalType": "bytes32",
          "name": "withdrawNullifierHash",
          "type": "bytes32"
        },
        {
          "indexed": false,
          "internalType": "bytes32",
          "name": "rewardNullifierHash",
          "type": "bytes32"
        },
        {
          "indexed": true,
          "internalType": "address",
          "name": "relayer",
          "type": "address"
        },
        {
          "indexed": false,
          "internalType": "uint256",
          "name": "fee",
          "type": "uint256"
        }
      ],
      "name": "Withdrawal",
      "type": "event"
    },
    {
      "constant": true,
      "inputs": [],
      "name": "FIELD_SIZE",
      "outputs": [
        {
          "internalType": "uint256",
          "name": "",
          "type": "uint256"
        }
      ],
      "payable": false,
      "stateMutability": "view",
      "type": "function"
    },
    {
      "constant": true,
      "inputs": [],
      "name": "ROOT_HISTORY_SIZE",
      "outputs": [
        {
          "internalType": "uint32",
          "name": "",
          "type": "uint32"
        }
      ],
      "payable": false,
      "stateMutability": "view",
      "type": "function"
    },
    {
      "constant": true,
      "inputs": [],
      "name": "ZERO_VALUE",
      "outputs": [
        {
          "internalType": "uint256",
          "name": "",
          "type": "uint256"
        }
      ],
      "payable": false,
      "stateMutability": "view",
      "type": "function"
    },
    {
      "constant": false,
      "inputs": [
        {
          "internalType": "address",
          "name": "_newOperator",
          "type": "address"
        }
      ],
      "name": "changeOperator",
      "outputs": [],
      "payable": false,
      "stateMutability": "nonpayable",
      "type": "function"
    },
    {
      "constant": true,
      "inputs": [
        {
          "internalType": "bytes32",
          "name": "",
          "type": "bytes32"
        }
      ],
      "name": "commitments",
      "outputs": [
        {
          "internalType": "bool",
          "name": "",
          "type": "bool"
        }
      ],
      "payable": false,
      "stateMutability": "view",
      "type": "function"
    },
    {
      "constant": true,
      "inputs": [],
      "name": "currentRootIndex",
      "outputs": [
        {
          "internalType": "uint32",
          "name": "",
          "type": "uint32"
        }
      ],
      "payable": false,
      "stateMutability": "view",
      "type": "function"
    },
    {
      "constant": true,
      "inputs": [],
      "name": "d_denomination",
      "outputs": [
        {
          "internalType": "uint256",
          "name": "",
          "type": "uint256"
        }
      ],
      "payable": false,
      "stateMutability": "view",
      "type": "function"
    },
    {
      "constant": false,
      "inputs": [
        {
          "internalType": "bytes32",
          "name": "_commitment",
          "type": "bytes32"
        }
      ],
      "name": "deposit",
      "outputs": [],
      "payable": true,
      "stateMutability": "payable",
      "type": "function"
    },
    {
      "constant": true,
      "inputs": [
        {
          "internalType": "uint256",
          "name": "",
          "type": "uint256"
        }
      ],
      "name": "filledSubtrees",
      "outputs": [
        {
          "internalType": "bytes32",
          "name": "",
          "type": "bytes32"
        }
      ],
      "payable": false,
      "stateMutability": "view",
      "type": "function"
    },
    {
      "constant": true,
      "inputs": [],
      "name": "getLastRoot",
      "outputs": [
        {
          "internalType": "bytes32",
          "name": "",
          "type": "bytes32"
        }
      ],
      "payable": false,
      "stateMutability": "view",
      "type": "function"
    },
    {
      "constant": true,
      "inputs": [
        {
          "internalType": "bytes32",
          "name": "_left",
          "type": "bytes32"
        },
        {
          "internalType": "bytes32",
          "name": "_right",
          "type": "bytes32"
        }
      ],
      "name": "hashLeftRight",
      "outputs": [
        {
          "internalType": "bytes32",
          "name": "",
          "type": "bytes32"
        }
      ],
      "payable": false,
      "stateMutability": "pure",
      "type": "function"
    },
    {
      "constant": true,
      "inputs": [
        {
          "internalType": "bytes32",
          "name": "_root",
          "type": "bytes32"
        }
      ],
      "name": "isKnownRoot",
      "outputs": [
        {
          "internalType": "bool",
          "name": "",
          "type": "bool"
        }
      ],
      "payable": false,
      "stateMutability": "view",
      "type": "function"
    },
    {
      "constant": true,
      "inputs": [
        {
          "internalType": "bytes32",
          "name": "_rwdHash",
          "type": "bytes32"
        }
      ],
      "name": "isRedeem",
      "outputs": [
        {
          "internalType": "bool",
          "name": "",
          "type": "bool"
        }
      ],
      "payable": false,
      "stateMutability": "view",
      "type": "function"
    },
    {
      "constant": true,
      "inputs": [
        {
          "internalType": "bytes32[]",
          "name": "_nullifierHashes",
          "type": "bytes32[]"
        }
      ],
      "name": "isRedeemArray",
      "outputs": [
        {
          "internalType": "bool[]",
          "name": "redeem",
          "type": "bool[]"
        }
      ],
      "payable": false,
      "stateMutability": "view",
      "type": "function"
    },
    {
      "constant": true,
      "inputs": [
        {
          "internalType": "bytes32",
          "name": "_rroot",
          "type": "bytes32"
        }
      ],
      "name": "isRewardRoot",
      "outputs": [
        {
          "internalType": "bool",
          "name": "",
          "type": "bool"
        }
      ],
      "payable": false,
      "stateMutability": "view",
      "type": "function"
    },
    {
      "constant": true,
      "inputs": [
        {
          "internalType": "bytes32",
          "name": "_wdrHash",
          "type": "bytes32"
        }
      ],
      "name": "isSpent",
      "outputs": [
        {
          "internalType": "bool",
          "name": "",
          "type": "bool"
        }
      ],
      "payable": false,
      "stateMutability": "view",
      "type": "function"
    },
    {
      "constant": true,
      "inputs": [
        {
          "internalType": "bytes32[]",
          "name": "_nullifierHashes",
          "type": "bytes32[]"
        }
      ],
      "name": "isSpentArray",
      "outputs": [
        {
          "internalType": "bool[]",
          "name": "spent",
          "type": "bool[]"
        }
      ],
      "payable": false,
      "stateMutability": "view",
      "type": "function"
    },
    {
      "constant": true,
      "inputs": [],
      "name": "levels",
      "outputs": [
        {
          "internalType": "uint32",
          "name": "",
          "type": "uint32"
        }
      ],
      "payable": false,
      "stateMutability": "view",
      "type": "function"
    },
    {
      "constant": true,
      "inputs": [],
      "name": "nextIndex",
      "outputs": [
        {
          "internalType": "uint32",
          "name": "",
          "type": "uint32"
        }
      ],
      "payable": false,
      "stateMutability": "view",
      "type": "function"
    },
    {
      "constant": true,
      "inputs": [
        {
          "internalType": "bytes32",
          "name": "",
          "type": "bytes32"
        }
      ],
      "name": "nullifierHashes",
      "outputs": [
        {
          "internalType": "bool",
          "name": "",
          "type": "bool"
        }
      ],
      "payable": false,
      "stateMutability": "view",
      "type": "function"
    },
    {
      "constant": true,
      "inputs": [],
      "name": "operator",
      "outputs": [
        {
          "internalType": "address",
          "name": "",
          "type": "address"
        }
      ],
      "payable": false,
      "stateMutability": "view",
      "type": "function"
    },
    {
      "constant": true,
      "inputs": [],
      "name": "r_denomination",
      "outputs": [
        {
          "internalType": "uint256",
          "name": "",
          "type": "uint256"
        }
      ],
      "payable": false,
      "stateMutability": "view",
      "type": "function"
    },
    {
      "constant": false,
      "inputs": [
        {
          "internalType": "bytes",
          "name": "_rproof",
          "type": "bytes"
        },
        {
          "internalType": "bytes32",
          "name": "_rroot",
          "type": "bytes32"
        },
        {
          "internalType": "bytes32",
          "name": "_rwdHash",
          "type": "bytes32"
        },
        {
          "internalType": "address payable",
          "name": "_recipient",
          "type": "address"
        },
        {
          "internalType": "address payable",
          "name": "_relayer",
          "type": "address"
        },
        {
          "internalType": "uint256",
          "name": "_fee",
          "type": "uint256"
        },
        {
          "internalType": "uint256",
          "name": "_reward",
          "type": "uint256"
        }
      ],
      "name": "reward",
      "outputs": [],
      "payable": true,
      "stateMutability": "payable",
      "type": "function"
    },
    {
      "constant": true,
      "inputs": [],
      "name": "rewardCurrentBlocknum",
      "outputs": [
        {
          "internalType": "uint32",
          "name": "",
          "type": "uint32"
        }
      ],
      "payable": false,
      "stateMutability": "view",
      "type": "function"
    },
    {
      "constant": true,
      "inputs": [],
      "name": "rewardCurrentRoot",
      "outputs": [
        {
          "internalType": "bytes32",
          "name": "",
          "type": "bytes32"
        }
      ],
      "payable": false,
      "stateMutability": "view",
      "type": "function"
    },
    {
      "constant": true,
      "inputs": [],
      "name": "rewardNextBlocknum",
      "outputs": [
        {
          "internalType": "uint32",
          "name": "",
          "type": "uint32"
        }
      ],
      "payable": false,
      "stateMutability": "view",
      "type": "function"
    },
    {
      "constant": true,
      "inputs": [],
      "name": "rewardNextRoot",
      "outputs": [
        {
          "internalType": "bytes32",
          "name": "",
          "type": "bytes32"
        }
      ],
      "payable": false,
      "stateMutability": "view",
      "type": "function"
    },
    {
      "constant": true,
      "inputs": [
        {
          "internalType": "bytes32",
          "name": "",
          "type": "bytes32"
        }
      ],
      "name": "rewardNullifierHashes",
      "outputs": [
        {
          "internalType": "bool",
          "name": "",
          "type": "bool"
        }
      ],
      "payable": false,
      "stateMutability": "view",
      "type": "function"
    },
    {
      "constant": true,
      "inputs": [],
      "name": "rewardVerifier",
      "outputs": [
        {
          "internalType": "contract RVerifier",
          "name": "",
          "type": "address"
        }
      ],
      "payable": false,
      "stateMutability": "view",
      "type": "function"
    },
    {
      "constant": true,
      "inputs": [
        {
          "internalType": "uint256",
          "name": "",
          "type": "uint256"
        }
      ],
      "name": "roots",
      "outputs": [
        {
          "internalType": "bytes32",
          "name": "",
          "type": "bytes32"
        }
      ],
      "payable": false,
      "stateMutability": "view",
      "type": "function"
    },
    {
      "constant": true,
      "inputs": [],
      "name": "token",
      "outputs": [
        {
          "internalType": "address",
          "name": "",
          "type": "address"
        }
      ],
      "payable": false,
      "stateMutability": "view",
      "type": "function"
    },
    {
      "constant": false,
      "inputs": [
        {
          "internalType": "address",
          "name": "_newVerifier",
          "type": "address"
        }
      ],
      "name": "updateRewardVerifier",
      "outputs": [],
      "payable": false,
      "stateMutability": "nonpayable",
      "type": "function"
    },
    {
      "constant": false,
      "inputs": [
        {
          "internalType": "address",
          "name": "_newVerifier",
          "type": "address"
        }
      ],
      "name": "updateWithdrawVerifier",
      "outputs": [],
      "payable": false,
      "stateMutability": "nonpayable",
      "type": "function"
    },
    {
      "constant": false,
      "inputs": [
        {
          "internalType": "bytes",
          "name": "_proof",
          "type": "bytes"
        },
        {
          "internalType": "bytes32",
          "name": "_root",
          "type": "bytes32"
        },
        {
          "internalType": "bytes32",
          "name": "_wdrHash",
          "type": "bytes32"
        },
        {
          "internalType": "bytes32",
          "name": "_rwdHash",
          "type": "bytes32"
        },
        {
          "internalType": "address payable",
          "name": "_recipient",
          "type": "address"
        },
        {
          "internalType": "address payable",
          "name": "_relayer",
          "type": "address"
        },
        {
          "internalType": "uint256",
          "name": "_fee",
          "type": "uint256"
        },
        {
          "internalType": "uint256",
          "name": "_refund",
          "type": "uint256"
        }
      ],
      "name": "withdraw",
      "outputs": [],
      "payable": true,
      "stateMutability": "payable",
      "type": "function"
    },
    {
      "constant": true,
      "inputs": [],
      "name": "withdrawVerifier",
      "outputs": [
        {
          "internalType": "contract WVerifier",
          "name": "",
          "type": "address"
        }
      ],
      "payable": false,
      "stateMutability": "view",
      "type": "function"
    },
    {
      "constant": true,
      "inputs": [
        {
          "internalType": "uint256",
          "name": "",
          "type": "uint256"
        }
      ],
      "name": "zeros",
      "outputs": [
        {
          "internalType": "bytes32",
          "name": "",
          "type": "bytes32"
        }
      ],
      "payable": false,
      "stateMutability": "view",
      "type": "function"
    }
  ],
  "bytecode": "0x60806040526000600360006101000a81548163ffffffff021916908363ffffffff1602179055506000600360046101000a81548163ffffffff021916908363ffffffff1602179055503480156200005557600080fd5b506040516200390e3803806200390e83398181016040526101008110156200007c57600080fd5b81019080805190602001909291908051906020019092919080519060200190929190805190602001909291908051906020019092919080519060200190929190805190602001909291908051906020019092919050505087878787878787828260008263ffffffff16116200013d576040517f08c379a00000000000000000000000000000000000000000000000000000000081526004018080602001828103825260278152602001806200386c6027913960400191505060405180910390fd5b60208263ffffffff16106200019e576040517f08c379a0000000000000000000000000000000000000000000000000000000008152600401808060200182810382526022815260200180620038936022913960400191505060405180910390fd5b816000806101000a81548163ffffffff021916908363ffffffff1602179055508061271760046101000a81548163ffffffff021916908363ffffffff16021790555060007f2fe54c60d3acabf3343a35b6eba15db4821b340f76e741e2249685ed4899af6c60001b9050600281908060018154018082558091505090600182039060005260206000200160009091929091909150555060018190806001815401808255809150509060018203906000526020600020016000909192909190915055506000600190505b6000809054906101000a900463ffffffff1663ffffffff168163ffffffff16101562000307576200029f8283620005a760201b60201c565b915060028290806001815401808255809150509060018203906000526020600020016000909192909190915055506001829080600181540180825580915050906001820390600052602060002001600090919290919091505550808060010191505062000267565b506200031a8182620005a760201b60201c565b6004600061271081106200032a57fe5b01819055506004600061271081106200033f57fe5b0154612714819055504361271560006101000a81548163ffffffff021916908363ffffffff1602179055506004600061271081106200037a57fe5b0154612716819055504361271760006101000a81548163ffffffff021916908363ffffffff160217905550505050600161271760086101000a81548160ff021916908315150217905550600085116200041f576040517f08c379a000000000000000000000000000000000000000000000000000000000815260040180806020018281038252602d815260200180620038b5602d913960400191505060405180910390fd5b600084116200047a576040517f08c379a000000000000000000000000000000000000000000000000000000000815260040180806020018281038252602c815260200180620038e2602c913960400191505060405180910390fd5b8661271d60006101000a81548173ffffffffffffffffffffffffffffffffffffffff021916908373ffffffffffffffffffffffffffffffffffffffff1602179055508561271e60006101000a81548173ffffffffffffffffffffffffffffffffffffffff021916908373ffffffffffffffffffffffffffffffffffffffff1602179055508061271f60006101000a81548173ffffffffffffffffffffffffffffffffffffffff021916908373ffffffffffffffffffffffffffffffffffffffff16021790555084612718819055508361271981905550505050505050508061272060006101000a81548173ffffffffffffffffffffffffffffffffffffffff021916908373ffffffffffffffffffffffffffffffffffffffff1602179055505050505050505050620006fd565b600060606002604051908082528060200260200182016040528015620005dc5781602001602082028038833980820191505090505b5090508360001c81600081518110620005f157fe5b6020026020010181815250508260001c816001815181106200060f57fe5b602002602001018181525050600073__Hasher________________________________63c4420fb4836040518263ffffffff1660e01b81526004018080602001828103825283818151815260200191508051906020019060200280838360005b838110156200068c5780820151818401526020810190506200066f565b505050509050019250505060206040518083038186803b158015620006b057600080fd5b505af4158015620006c5573d6000803e3d6000fd5b505050506040513d6020811015620006dc57600080fd5b810190808051906020019092919050505090508060001b9250505092915050565b61315f806200070d6000396000f3fe60806040526004361061020f5760003560e01c8063864eb16411610118578063cd87a3b4116100a0578063ec7329591161006f578063ec73295914610cb7578063f178e47c14610ce2578063f9406cf314610d31578063fc0c546a14610d88578063fc7e9c6f14610ddf5761020f565b8063cd87a3b414610bb3578063e16f7cd414610bea578063e5285dcc14610c15578063e829558814610c685761020f565b8063b7433691116100e7578063b743369114610919578063ba70f75714610a05578063c2b40ae414610a30578063c3f436b714610a7f578063c526cb5f14610b605761020f565b8063864eb1641461078257806390eeb02b146107d95780639fa12d0b14610810578063b214faa5146108eb5761020f565b806343d015201161019b57806375c231281161016a57806375c231281461063557806378c66697146106865780638036bcc9146106b157806383922d2914610704578063839df9451461072f5761020f565b806343d01520146105035780634ecf518b14610554578063570ca7351461058b5780636d9833e3146105e25761020f565b80632e2d40ce116101e25780632e2d40ce146103e657806338bf282e1461041d5780633a1fa643146104765780633ce0de9b146104a1578063414a37ba146104d85761020f565b806306394c9b1461021457806309087f0c146102655780631610f7621461034057806317cc915c14610393575b600080fd5b34801561022057600080fd5b506102636004803603602081101561023757600080fd5b81019080803573ffffffffffffffffffffffffffffffffffffffff169060200190929190505050610e16565b005b34801561027157600080fd5b506102e96004803603602081101561028857600080fd5b81019080803590602001906401000000008111156102a557600080fd5b8201836020820111156102b757600080fd5b803590602001918460208302840111640100000000831117156102d957600080fd5b9091929391929390505050610f02565b6040518080602001828103825283818151815260200191508051906020019060200280838360005b8381101561032c578082015181840152602081019050610311565b505050509050019250505060405180910390f35b34801561034c57600080fd5b506103796004803603602081101561036357600080fd5b8101908080359060200190929190505050610f9f565b604051808215151515815260200191505060405180910390f35b34801561039f57600080fd5b506103cc600480360360208110156103b657600080fd5b8101908080359060200190929190505050610fc0565b604051808215151515815260200191505060405180910390f35b3480156103f257600080fd5b506103fb610fe1565b604051808263ffffffff1663ffffffff16815260200191505060405180910390f35b34801561042957600080fd5b506104606004803603604081101561044057600080fd5b810190808035906020019092919080359060200190929190505050610ff8565b6040518082815260200191505060405180910390f35b34801561048257600080fd5b5061048b611146565b6040518082815260200191505060405180910390f35b3480156104ad57600080fd5b506104b661114d565b604051808263ffffffff1663ffffffff16815260200191505060405180910390f35b3480156104e457600080fd5b506104ed611164565b6040518082815260200191505060405180910390f35b34801561050f57600080fd5b506105526004803603602081101561052657600080fd5b81019080803573ffffffffffffffffffffffffffffffffffffffff169060200190929190505050611188565b005b34801561056057600080fd5b50610569611274565b604051808263ffffffff1663ffffffff16815260200191505060405180910390f35b34801561059757600080fd5b506105a0611289565b604051808273ffffffffffffffffffffffffffffffffffffffff1673ffffffffffffffffffffffffffffffffffffffff16815260200191505060405180910390f35b3480156105ee57600080fd5b5061061b6004803603602081101561060557600080fd5b81019080803590602001909291905050506112b0565b604051808215151515815260200191505060405180910390f35b34801561064157600080fd5b506106846004803603602081101561065857600080fd5b81019080803573ffffffffffffffffffffffffffffffffffffffff169060200190929190505050611354565b005b34801561069257600080fd5b5061069b611440565b6040518082815260200191505060405180910390f35b3480156106bd57600080fd5b506106ea600480360360208110156106d457600080fd5b8101908080359060200190929190505050611447565b604051808215151515815260200191505060405180910390f35b34801561071057600080fd5b50610719611472565b6040518082815260200191505060405180910390f35b34801561073b57600080fd5b506107686004803603602081101561075257600080fd5b8101908080359060200190929190505050611479565b604051808215151515815260200191505060405180910390f35b34801561078e57600080fd5b5061079761149a565b604051808273ffffffffffffffffffffffffffffffffffffffff1673ffffffffffffffffffffffffffffffffffffffff16815260200191505060405180910390f35b3480156107e557600080fd5b506107ee6114c1565b604051808263ffffffff1663ffffffff16815260200191505060405180910390f35b34801561081c57600080fd5b506108946004803603602081101561083357600080fd5b810190808035906020019064010000000081111561085057600080fd5b82018360208201111561086257600080fd5b8035906020019184602083028401116401000000008311171561088457600080fd5b90919293919293905050506114d7565b6040518080602001828103825283818151815260200191508051906020019060200280838360005b838110156108d75780820151818401526020810190506108bc565b505050509050019250505060405180910390f35b6109176004803603602081101561090157600080fd5b8101908080359060200190929190505050611574565b005b610a03600480360361010081101561093057600080fd5b810190808035906020019064010000000081111561094d57600080fd5b82018360208201111561095f57600080fd5b8035906020019184600183028401116401000000008311171561098157600080fd5b9091929391929390803590602001909291908035906020019092919080359060200190929190803573ffffffffffffffffffffffffffffffffffffffff169060200190929190803573ffffffffffffffffffffffffffffffffffffffff1690602001909291908035906020019092919080359060200190929190505050611739565b005b348015610a1157600080fd5b50610a1a611cee565b6040518082815260200191505060405180910390f35b348015610a3c57600080fd5b50610a6960048036036020811015610a5357600080fd5b8101908080359060200190929190505050611d1d565b6040518082815260200191505060405180910390f35b610b5e600480360360e0811015610a9557600080fd5b8101908080359060200190640100000000811115610ab257600080fd5b820183602082011115610ac457600080fd5b80359060200191846001830284011164010000000083111715610ae657600080fd5b90919293919293908035906020019092919080359060200190929190803573ffffffffffffffffffffffffffffffffffffffff169060200190929190803573ffffffffffffffffffffffffffffffffffffffff1690602001909291908035906020019092919080359060200190929190505050611d36565b005b348015610b6c57600080fd5b50610b9960048036036020811015610b8357600080fd5b8101908080359060200190929190505050612207565b604051808215151515815260200191505060405180910390f35b348015610bbf57600080fd5b50610bc861223b565b604051808263ffffffff1663ffffffff16815260200191505060405180910390f35b348015610bf657600080fd5b50610bff612241565b6040518082815260200191505060405180910390f35b348015610c2157600080fd5b50610c4e60048036036020811015610c3857600080fd5b8101908080359060200190929190505050612248565b604051808215151515815260200191505060405180910390f35b348015610c7457600080fd5b50610ca160048036036020811015610c8b57600080fd5b8101908080359060200190929190505050612273565b6040518082815260200191505060405180910390f35b348015610cc357600080fd5b50610ccc612294565b6040518082815260200191505060405180910390f35b348015610cee57600080fd5b50610d1b60048036036020811015610d0557600080fd5b81019080803590602001909291905050506122b8565b6040518082815260200191505060405180910390f35b348015610d3d57600080fd5b50610d466122d9565b604051808273ffffffffffffffffffffffffffffffffffffffff1673ffffffffffffffffffffffffffffffffffffffff16815260200191505060405180910390f35b348015610d9457600080fd5b50610d9d612300565b604051808273ffffffffffffffffffffffffffffffffffffffff1673ffffffffffffffffffffffffffffffffffffffff16815260200191505060405180910390f35b348015610deb57600080fd5b50610df4612327565b604051808263ffffffff1663ffffffff16815260200191505060405180910390f35b61271f60009054906101000a900473ffffffffffffffffffffffffffffffffffffffff1673ffffffffffffffffffffffffffffffffffffffff163373ffffffffffffffffffffffffffffffffffffffff1614610ebd576040517f08c379a00000000000000000000000000000000000000000000000000000000081526004018080602001828103825260258152602001806131066025913960400191505060405180910390fd5b8061271f60006101000a81548173ffffffffffffffffffffffffffffffffffffffff021916908373ffffffffffffffffffffffffffffffffffffffff16021790555050565b606082829050604051908082528060200260200182016040528015610f365781602001602082028038833980820191505090505b50905060008090505b83839050811015610f9857610f65848483818110610f5957fe5b90506020020135612248565b15610f8b576001828281518110610f7857fe5b6020026020010190151590811515815250505b8080600101915050610f3f565b5092915050565b61271b6020528060005260406000206000915054906101000a900460ff1681565b61271a6020528060005260406000206000915054906101000a900460ff1681565b61271560009054906101000a900463ffffffff1681565b60006060600260405190808252806020026020018201604052801561102c5781602001602082028038833980820191505090505b5090508360001c8160008151811061104057fe5b6020026020010181815250508260001c8160018151811061105d57fe5b602002602001018181525050600073__Hasher________________________________63c4420fb4836040518263ffffffff1660e01b81526004018080602001828103825283818151815260200191508051906020019060200280838360005b838110156110d85780820151818401526020810190506110bd565b505050509050019250505060206040518083038186803b1580156110fb57600080fd5b505af415801561110f573d6000803e3d6000fd5b505050506040513d602081101561112557600080fd5b810190808051906020019092919050505090508060001b9250505092915050565b6127145481565b61271760009054906101000a900463ffffffff1681565b7f30644e72e131a029b85045b68181585d2833e84879b9709143e1f593f000000181565b61271f60009054906101000a900473ffffffffffffffffffffffffffffffffffffffff1673ffffffffffffffffffffffffffffffffffffffff163373ffffffffffffffffffffffffffffffffffffffff161461122f576040517f08c379a00000000000000000000000000000000000000000000000000000000081526004018080602001828103825260258152602001806131066025913960400191505060405180910390fd5b8061271e60006101000a81548173ffffffffffffffffffffffffffffffffffffffff021916908373ffffffffffffffffffffffffffffffffffffffff16021790555050565b6000809054906101000a900463ffffffff1681565b61271f60009054906101000a900473ffffffffffffffffffffffffffffffffffffffff1681565b60008060001b8214156112c6576000905061134f565b6000600360009054906101000a900463ffffffff1690505b60048163ffffffff1661271081106112f257fe5b015483141561130557600191505061134f565b60008163ffffffff16141561131a5761271090505b808060019003915050600360009054906101000a900463ffffffff1663ffffffff168163ffffffff1614156112de5760009150505b919050565b61271f60009054906101000a900473ffffffffffffffffffffffffffffffffffffffff1673ffffffffffffffffffffffffffffffffffffffff163373ffffffffffffffffffffffffffffffffffffffff16146113fb576040517f08c379a00000000000000000000000000000000000000000000000000000000081526004018080602001828103825260258152602001806131066025913960400191505060405180910390fd5b8061271d60006101000a81548173ffffffffffffffffffffffffffffffffffffffff021916908373ffffffffffffffffffffffffffffffffffffffff16021790555050565b6127195481565b600061271b600083815260200190815260200160002060009054906101000a900460ff169050919050565b6127165481565b61271c6020528060005260406000206000915054906101000a900460ff1681565b61271d60009054906101000a900473ffffffffffffffffffffffffffffffffffffffff1681565b600360009054906101000a900463ffffffff1681565b60608282905060405190808252806020026020018201604052801561150b5781602001602082028038833980820191505090505b50905060008090505b8383905081101561156d5761153a84848381811061152e57fe5b90506020020135612248565b1561156057600182828151811061154d57fe5b6020026020010190151590811515815250505b8080600101915050611514565b5092915050565b61271760089054906101000a900460ff166115f7576040517f08c379a000000000000000000000000000000000000000000000000000000000815260040180806020018281038252601f8152602001807f5265656e7472616e637947756172643a207265656e7472616e742063616c6c0081525060200191505060405180910390fd5b600061271760086101000a81548160ff02191690831515021790555061271c600082815260200190815260200160002060009054906101000a900460ff161561168b576040517f08c379a000000000000000000000000000000000000000000000000000000000815260040180806020018281038252602181526020018061308c6021913960400191505060405180910390fd5b60006116968261233d565b9050600161271c600084815260200190815260200160002060006101000a81548160ff0219169083151502179055506116cd612694565b817fa945e51eec50ab98c161376f0db4cf2aeba3ec92755fe2fcd388bdbbb80ff1968242604051808363ffffffff1663ffffffff1681526020018281526020019250505060405180910390a250600161271760086101000a81548160ff02191690831515021790555050565b61271760089054906101000a900460ff166117bc576040517f08c379a000000000000000000000000000000000000000000000000000000000815260040180806020018281038252601f8152602001807f5265656e7472616e637947756172643a207265656e7472616e742063616c6c0081525060200191505060405180910390fd5b600061271760086101000a81548160ff02191690831515021790555061271854821115611851576040517f08c379a000000000000000000000000000000000000000000000000000000000815260040180806020018281038252601a8152602001807f4665652065786365656473207472616e736665722076616c756500000000000081525060200191505060405180910390fd5b61271a600087815260200190815260200160002060009054906101000a900460ff16156118c9576040517f08c379a00000000000000000000000000000000000000000000000000000000081526004018080602001828103825260388152602001806130546038913960400191505060405180910390fd5b61271a600086815260200190815260200160002060009054906101000a900460ff1615611941576040517f08c379a0000000000000000000000000000000000000000000000000000000008152600401808060200182810382526036815260200180612fc86036913960400191505060405180910390fd5b61194a876112b0565b6119bc576040517f08c379a000000000000000000000000000000000000000000000000000000000815260040180806020018281038252601c8152602001807f43616e6e6f742066696e6420796f7572206d65726b6c6520726f6f740000000081525060200191505060405180910390fd5b61271d60009054906101000a900473ffffffffffffffffffffffffffffffffffffffff1673ffffffffffffffffffffffffffffffffffffffff1663598da1d18a8a6040518060e001604052808c60001c81526020018b60001c81526020018a60001c81526020018973ffffffffffffffffffffffffffffffffffffffff1681526020018873ffffffffffffffffffffffffffffffffffffffff168152602001878152602001868152506040518463ffffffff1660e01b8152600401808060200183600760200280838360005b83811015611aa3578082015181840152602081019050611a88565b505050509050018281038252858582818152602001925080828437600081840152601f19601f820116905080830192505050945050505050602060405180830381600087803b158015611af557600080fd5b505af1158015611b09573d6000803e3d6000fd5b505050506040513d6020811015611b1f57600080fd5b8101908080519060200190929190505050611ba2576040517f08c379a00000000000000000000000000000000000000000000000000000000081526004018080602001828103825260168152602001807f496e76616c69642077697468647261772070726f6f660000000000000000000081525060200191505060405180910390fd5b600161271a600088815260200190815260200160002060006101000a81548160ff021916908315150217905550600161271a600087815260200190815260200160002060006101000a81548160ff021916908315150217905550600161271b600087815260200190815260200160002060006101000a81548160ff021916908315150217905550611c35848484846126fd565b8273ffffffffffffffffffffffffffffffffffffffff167fb9632a5273eccb6a6c4f89035ced459ebb3db29e0ad807721982f4960602242d85888886604051808573ffffffffffffffffffffffffffffffffffffffff1673ffffffffffffffffffffffffffffffffffffffff16815260200184815260200183815260200182815260200194505050505060405180910390a2600161271760086101000a81548160ff021916908315150217905550505050505050505050565b60006004600360009054906101000a900463ffffffff1663ffffffff166127108110611d1657fe5b0154905090565b6004816127108110611d2b57fe5b016000915090505481565b61271760089054906101000a900460ff16611db9576040517f08c379a000000000000000000000000000000000000000000000000000000000815260040180806020018281038252601f8152602001807f5265656e7472616e637947756172643a207265656e7472616e742063616c6c0081525060200191505060405180910390fd5b600061271760086101000a81548160ff02191690831515021790555061271954821115611e4e576040517f08c379a000000000000000000000000000000000000000000000000000000000815260040180806020018281038252601a8152602001807f4665652065786365656473207472616e736665722076616c756500000000000081525060200191505060405180910390fd5b61271b600086815260200190815260200160002060009054906101000a900460ff1615611ec6576040517f08c379a00000000000000000000000000000000000000000000000000000000081526004018080602001828103825260298152602001806130dd6029913960400191505060405180910390fd5b611ecf86612207565b611f41576040517f08c379a000000000000000000000000000000000000000000000000000000000815260040180806020018281038252601c8152602001807f43616e6e6f742066696e6420796f7572206d65726b6c6520726f6f740000000081525060200191505060405180910390fd5b61271e60009054906101000a900473ffffffffffffffffffffffffffffffffffffffff1673ffffffffffffffffffffffffffffffffffffffff1663695ef6f989896040518060c001604052808b60001c81526020018a60001c81526020018973ffffffffffffffffffffffffffffffffffffffff1681526020018873ffffffffffffffffffffffffffffffffffffffff168152602001878152602001868152506040518463ffffffff1660e01b8152600401808060200183600660200280838360005b8381101561201f578082015181840152602081019050612004565b505050509050018281038252858582818152602001925080828437600081840152601f19601f820116905080830192505050945050505050602060405180830381600087803b15801561207157600080fd5b505af1158015612085573d6000803e3d6000fd5b505050506040513d602081101561209b57600080fd5b810190808051906020019092919050505061211e576040517f08c379a00000000000000000000000000000000000000000000000000000000081526004018080602001828103825260148152602001807f496e76616c6964207265776172642070726f6f6600000000000000000000000081525060200191505060405180910390fd5b600161271b600087815260200190815260200160002060006101000a81548160ff0219169083151502179055506121578484848461283f565b8273ffffffffffffffffffffffffffffffffffffffff167fd372214d98616c555c2fbc3e9e729a309374d6c2aa7c20e84c73c4af5e44e618858785604051808473ffffffffffffffffffffffffffffffffffffffff1673ffffffffffffffffffffffffffffffffffffffff168152602001838152602001828152602001935050505060405180910390a2600161271760086101000a81548160ff0219169083151502179055505050505050505050565b60008060001b82141561221d5760009050612236565b612714548214156122315760019050612236565b600090505b919050565b61271081565b6127185481565b600061271a600083815260200190815260200160002060009054906101000a900460ff169050919050565b6002818154811061228057fe5b906000526020600020016000915090505481565b7f2fe54c60d3acabf3343a35b6eba15db4821b340f76e741e2249685ed4899af6c81565b600181815481106122c557fe5b906000526020600020016000915090505481565b61271e60009054906101000a900473ffffffffffffffffffffffffffffffffffffffff1681565b61272060009054906101000a900473ffffffffffffffffffffffffffffffffffffffff1681565b600360049054906101000a900463ffffffff1681565b600080600360049054906101000a900463ffffffff1690506000809054906101000a900463ffffffff1663ffffffff16600263ffffffff160a63ffffffff168163ffffffff1614156123da576040517f08c379a000000000000000000000000000000000000000000000000000000000815260040180806020018281038252602f815260200180612f3f602f913960400191505060405180910390fd5b6001600360048282829054906101000a900463ffffffff160192506101000a81548163ffffffff021916908363ffffffff160217905550600083905060008060008090505b6000809054906101000a900463ffffffff1663ffffffff168163ffffffff1610156124fd57600060028663ffffffff168161245657fe5b0663ffffffff1614156124ad5783925060028163ffffffff168154811061247957fe5b906000526020600020015491508360018263ffffffff168154811061249a57fe5b90600052602060002001819055506124d1565b60018163ffffffff16815481106124c057fe5b906000526020600020015492508391505b6124db8383610ff8565b935060028563ffffffff16816124ed57fe5b049450808060010191505061241f565b5061271063ffffffff166001600360009054906101000a900463ffffffff160163ffffffff168161252a57fe5b06600360006101000a81548163ffffffff021916908363ffffffff160217905550826004600360009054906101000a900463ffffffff1663ffffffff16612710811061257257fe5b018190555061271760049054906101000a900463ffffffff1663ffffffff1661271760009054906101000a900463ffffffff16430363ffffffff1610612673576127165461271481905550826127168190555061271760009054906101000a900463ffffffff1661271560006101000a81548163ffffffff021916908363ffffffff1602179055504361271760006101000a81548163ffffffff021916908363ffffffff1602179055507f1606ca2afee2c3dcc26cae165c508e922c6f2d01648c2ba5752393b1eb8e6c9d61271560009054906101000a900463ffffffff16604051808263ffffffff1663ffffffff16815260200191505060405180910390a15b6001600360049054906101000a900463ffffffff1603945050505050919050565b600034146126ed576040517f08c379a00000000000000000000000000000000000000000000000000000000081526004018080602001828103825260308152602001806130ad6030913960400191505060405180910390fd5b6126fb333061271854612981565b565b803414612755576040517f08c379a0000000000000000000000000000000000000000000000000000000008152600401808060200182810382526030815260200180612f986030913960400191505060405180910390fd5b61276484836127185403612c7a565b6000821115612778576127778383612c7a565b5b60008111156128395760008473ffffffffffffffffffffffffffffffffffffffff168260405180600001905060006040518083038185875af1925050503d80600081146127e1576040519150601f19603f3d011682016040523d82523d6000602084013e6127e6565b606091505b5050905080612837578373ffffffffffffffffffffffffffffffffffffffff166108fc839081150290604051600060405180830381858888f19350505050158015612835573d6000803e3d6000fd5b505b505b50505050565b803414612897576040517f08c379a0000000000000000000000000000000000000000000000000000000008152600401808060200182810382526030815260200180612f986030913960400191505060405180910390fd5b6128a684836127195403612c7a565b60008211156128ba576128b98383612c7a565b5b600081111561297b5760008473ffffffffffffffffffffffffffffffffffffffff168260405180600001905060006040518083038185875af1925050503d8060008114612923576040519150601f19603f3d011682016040523d82523d6000602084013e612928565b606091505b5050905080612979578373ffffffffffffffffffffffffffffffffffffffff166108fc839081150290604051600060405180830381858888f19350505050158015612977573d6000803e3d6000fd5b505b505b50505050565b6000606061272060009054906101000a900473ffffffffffffffffffffffffffffffffffffffff1673ffffffffffffffffffffffffffffffffffffffff166323b872dd868686604051602401808473ffffffffffffffffffffffffffffffffffffffff1673ffffffffffffffffffffffffffffffffffffffff1681526020018373ffffffffffffffffffffffffffffffffffffffff1673ffffffffffffffffffffffffffffffffffffffff16815260200182815260200193505050506040516020818303038152906040529060e01b6020820180517bffffffffffffffffffffffffffffffffffffffffffffffffffffffff83818316178352505050506040518082805190602001908083835b60208310612ab15780518252602082019150602081019050602083039250612a8e565b6001836020036101000a0380198251168184511680821785525050505050509050019150506000604051808303816000865af19150503d8060008114612b13576040519150601f19603f3d011682016040523d82523d6000602084013e612b18565b606091505b509150915081612b90576040517f08c379a00000000000000000000000000000000000000000000000000000000081526004018080602001828103825260198152602001807f6e6f7420656e6f75676820616c6c6f77656420746f6b656e730000000000000081525060200191505060405180910390fd5b600081511115612c73576020815114612bf4576040517f08c379a000000000000000000000000000000000000000000000000000000000815260040180806020018281038252602a815260200180612f6e602a913960400191505060405180910390fd5b808060200190516020811015612c0957600080fd5b8101908080519060200190929190505050915081612c72576040517f08c379a000000000000000000000000000000000000000000000000000000000815260040180806020018281038252602f815260200180613025602f913960400191505060405180910390fd5b5b5050505050565b6000606061272060009054906101000a900473ffffffffffffffffffffffffffffffffffffffff1673ffffffffffffffffffffffffffffffffffffffff1663a9059cbb8585604051602401808373ffffffffffffffffffffffffffffffffffffffff1673ffffffffffffffffffffffffffffffffffffffff168152602001828152602001925050506040516020818303038152906040529060e01b6020820180517bffffffffffffffffffffffffffffffffffffffffffffffffffffffff83818316178352505050506040518082805190602001908083835b60208310612d765780518252602082019150602081019050602083039250612d53565b6001836020036101000a0380198251168184511680821785525050505050509050019150506000604051808303816000865af19150503d8060008114612dd8576040519150601f19603f3d011682016040523d82523d6000602084013e612ddd565b606091505b509150915081612e55576040517f08c379a00000000000000000000000000000000000000000000000000000000081526004018080602001828103825260118152602001807f6e6f7420656e6f75676820746f6b656e7300000000000000000000000000000081525060200191505060405180910390fd5b600081511115612f38576020815114612eb9576040517f08c379a000000000000000000000000000000000000000000000000000000000815260040180806020018281038252602a815260200180612f6e602a913960400191505060405180910390fd5b808060200190516020811015612ece57600080fd5b8101908080519060200190929190505050915081612f37576040517f08c379a0000000000000000000000000000000000000000000000000000000008152600401808060200182810382526027815260200180612ffe6027913960400191505060405180910390fd5b5b5050505056fe4d65726b6c6520747265652069732066756c6c2e204e6f206d6f7265206c656166732063616e20626520616464656464617461206c656e6774682073686f756c64206265206569746865722030206f72203332206279746573496e636f727265637420726566756e6420616d6f756e742072656365697665642062792074686520636f6e747261637454686520726577617264206e6f746520686173206265656e20616c7265616479207370656e7420666f72207769746864726177696e676e6f7420656e6f75676820746f6b656e732e20546f6b656e2072657475726e732066616c73652e6e6f7420656e6f75676820616c6c6f77656420746f6b656e732e20546f6b656e2072657475726e732066616c73652e546865207769746864726177206e6f746520686173206265656e20616c7265616479207370656e7420666f72207769746864726177696e6754686520636f6d6d69746d656e7420686173206265656e207375626d69747465644554482076616c756520697320737570706f73656420746f206265203020666f7220455243323020696e7374616e636554686520726577617264206e6f746520686173206265656e20616c72656164792072656465656d65644f6e6c79206f70657261746f722063616e2063616c6c20746869732066756e6374696f6e2ea265627a7a7231582053970f664cbbb636e06fa99875bf65b0a0d89b290dfd561c41c8530dc4dd1f7664736f6c634300051100325f747265654c6576656c732073686f756c642062652067726561746572207468616e207a65726f5f747265654c6576656c732073686f756c64206265206c657373207468616e2033324465706f7369742064656e6f6d696e6174696f6e2073686f756c642062652067726561746572207468616e20305265776172642064656e6f6d696e6174696f6e2073686f756c642062652067726561746572207468616e2030",
  "source": "pragma solidity 0.5.17;\nimport \"./AMR.sol\";\n\ncontract ERC20AMR is AMR {\n  address public token;\n\n  constructor(\n    WVerifier _withdrawVerifier,\n    RVerifier _rewardVerifier,\n    uint256 _d_denomination,\n    uint256 _r_denomination,\n    uint32 _merkleTreeHeight,\n    uint32 _blockCount,\n    address _operator,\n    address _token\n  ) AMR(_withdrawVerifier, _rewardVerifier, _d_denomination, _r_denomination, _merkleTreeHeight, _blockCount, _operator) public {\n    token = _token;\n  }\n\n  function _processDeposit() internal {\n    require(msg.value == 0, \"ETH value is supposed to be 0 for ERC20 instance\");\n    _safeErc20TransferFrom(msg.sender, address(this), d_denomination); // equal to deposit\n  }\n  // can be used for reward as well \n  function _processWithdraw(address payable _recipient, address payable _relayer, uint256 _fee, uint256 _refund) internal {\n    require(msg.value == _refund, \"Incorrect refund amount received by the contract\");\n\n    _safeErc20Transfer(_recipient, d_denomination - _fee);\n    if (_fee > 0) {\n      _safeErc20Transfer(_relayer, _fee);\n    }\n\n    if (_refund > 0) {\n      (bool success, ) = _recipient.call.value(_refund)(\"\");\n      if (!success) {\n        // let's return _refund back to the relayer\n        _relayer.transfer(_refund);\n      }\n    }\n  }\n  \n  function _processReward(address payable _recipient, address payable _relayer, uint256 _fee, uint256 _reward) internal {\n    require(msg.value == _reward, \"Incorrect refund amount received by the contract\");\n    _safeErc20Transfer(_recipient, r_denomination - _fee);\n    if (_fee > 0) {\n      _safeErc20Transfer(_relayer, _fee);\n    }\n\n    if (_reward> 0) {\n      (bool success, ) = _recipient.call.value(_reward)(\"\");\n      if (!success) {\n        // let's return _refund back to the relayer\n        _relayer.transfer(_reward);\n      }\n    }\n  }\n\n  function _safeErc20TransferFrom(address _from, address _to, uint256 _amount) internal {\n    (bool success, bytes memory data) = token.call(abi.encodeWithSelector(0x23b872dd /* transferFrom */, _from, _to, _amount));\n    require(success, \"not enough allowed tokens\");\n\n    // if contract returns some data lets make sure that is `true` according to standard\n    if (data.length > 0) {\n      require(data.length == 32, \"data length should be either 0 or 32 bytes\");\n      success = abi.decode(data, (bool));\n      require(success, \"not enough allowed tokens. Token returns false.\");\n    }\n  }\n\n  function _safeErc20Transfer(address _to, uint256 _amount) internal {\n    (bool success, bytes memory data) = token.call(abi.encodeWithSelector(0xa9059cbb /* transfer */, _to, _amount));\n    require(success, \"not enough tokens\");\n\n    // if contract returns some data lets make sure that is `true` according to standard\n    if (data.length > 0) {\n      require(data.length == 32, \"data length should be either 0 or 32 bytes\");\n      success = abi.decode(data, (bool));\n      require(success, \"not enough tokens. Token returns false.\");\n    }\n  }\n}\n",
  "sourcePath": "/home/devildeer/Documents/amr-prototype/amr-poseidon-clean/contracts/ERC20AMR.sol",
  "compiler": {
    "name": "solc",
    "version": "0.5.17+commit.d19bba13.Emscripten.clang"
  },
  "schemaVersion": "3.2.3",
  "updatedAt": "2020-08-29T18:52:21.921Z",
  "devdoc": {
    "methods": {
      "changeOperator(address)": {
        "details": "operator can change his address "
      },
      "deposit(bytes32)": {
        "details": "Deposit funds into the contract. The caller must send (for ETH) or approve (for ERC20) value equal to or `denomination` of this instance.",
        "params": {
          "_commitment": "the note commitment, which is PedersenHash(nullifier + secret)"
        }
      },
      "getLastRoot()": {
        "details": "Returns the last root"
      },
      "isKnownRoot(bytes32)": {
        "details": "Whether the root is present in the root history"
      },
      "isRedeemArray(bytes32[])": {
        "details": "whether an array of notes is already spent "
      },
      "isSpent(bytes32)": {
        "details": "whether a note is already spent "
      },
      "isSpentArray(bytes32[])": {
        "details": "whether an array of notes is already spent "
      },
      "updateWithdrawVerifier(address)": {
        "details": "allow operator to update SNARK verification keys. This is needed to update keys after the final trusted setup ceremony is held. After that operator rights are supposed to be transferred to zero address"
      },
      "withdraw(bytes,bytes32,bytes32,bytes32,address,address,uint256,uint256)": {
        "details": "Withdraw a deposit from the contract. `proof` is a zkSNARK proof data, and input is an array of circuit public inputs `input` array consists of: - merkle root of all deposits in the contract - hash of unique deposit nullifier to prevent double spends - the recipient of funds - optional fee that goes to the transaction sender (usually a relay)"
      }
    }
  },
  "userdoc": {
    "methods": {}
  }
}