{
  "contractName": "ETHAMR",
  "abi": [
    {
      "inputs": [
        {
          "internalType": "contract WVerifier",
          "name": "_withdrawVerifier",
          "type": "address"
        },
        {
          "internalType": "contract RVerifier",
          "name": "_rewardVerifier",
          "type": "address"
        },
        {
          "internalType": "uint256",
          "name": "_d_denomination",
          "type": "uint256"
        },
        {
          "internalType": "uint256",
          "name": "_r_denomination",
          "type": "uint256"
        },
        {
          "internalType": "uint32",
          "name": "_merkleTreeHeight",
          "type": "uint32"
        },
        {
          "internalType": "uint32",
          "name": "_blockCount",
          "type": "uint32"
        },
        {
          "internalType": "address",
          "name": "_operator",
          "type": "address"
        }
      ],
      "payable": false,
      "stateMutability": "nonpayable",
      "type": "constructor"
    },
    {
      "anonymous": false,
      "inputs": [
        {
          "indexed": true,
          "internalType": "bytes32",
          "name": "commitment",
          "type": "bytes32"
        },
        {
          "indexed": false,
          "internalType": "uint32",
          "name": "leafIndex",
          "type": "uint32"
        },
        {
          "indexed": false,
          "internalType": "uint256",
          "name": "timestamp",
          "type": "uint256"
        }
      ],
      "name": "Deposit",
      "type": "event"
    },
    {
      "anonymous": false,
      "inputs": [
        {
          "indexed": false,
          "internalType": "address",
          "name": "to",
          "type": "address"
        },
        {
          "indexed": false,
          "internalType": "bytes32",
          "name": "rewardNullifierHash",
          "type": "bytes32"
        },
        {
          "indexed": true,
          "internalType": "address",
          "name": "relayer",
          "type": "address"
        },
        {
          "indexed": false,
          "internalType": "uint256",
          "name": "fee",
          "type": "uint256"
        }
      ],
      "name": "Reward",
      "type": "event"
    },
    {
      "anonymous": false,
      "inputs": [
        {
          "indexed": false,
          "internalType": "uint32",
          "name": "updateAtBlock",
          "type": "uint32"
        }
      ],
      "name": "RewardUpdate",
      "type": "event"
    },
    {
      "anonymous": false,
      "inputs": [
        {
          "indexed": false,
          "internalType": "address",
          "name": "to",
          "type": "address"
        },
        {
          "indexed": false,
          "internalType": "bytes32",
          "name": "withdrawNullifierHash",
          "type": "bytes32"
        },
        {
          "indexed": false,
          "internalType": "bytes32",
          "name": "rewardNullifierHash",
          "type": "bytes32"
        },
        {
          "indexed": true,
          "internalType": "address",
          "name": "relayer",
          "type": "address"
        },
        {
          "indexed": false,
          "internalType": "uint256",
          "name": "fee",
          "type": "uint256"
        }
      ],
      "name": "Withdrawal",
      "type": "event"
    },
    {
      "constant": true,
      "inputs": [],
      "name": "FIELD_SIZE",
      "outputs": [
        {
          "internalType": "uint256",
          "name": "",
          "type": "uint256"
        }
      ],
      "payable": false,
      "stateMutability": "view",
      "type": "function"
    },
    {
      "constant": true,
      "inputs": [],
      "name": "ROOT_HISTORY_SIZE",
      "outputs": [
        {
          "internalType": "uint32",
          "name": "",
          "type": "uint32"
        }
      ],
      "payable": false,
      "stateMutability": "view",
      "type": "function"
    },
    {
      "constant": true,
      "inputs": [],
      "name": "ZERO_VALUE",
      "outputs": [
        {
          "internalType": "uint256",
          "name": "",
          "type": "uint256"
        }
      ],
      "payable": false,
      "stateMutability": "view",
      "type": "function"
    },
    {
      "constant": false,
      "inputs": [
        {
          "internalType": "address",
          "name": "_newOperator",
          "type": "address"
        }
      ],
      "name": "changeOperator",
      "outputs": [],
      "payable": false,
      "stateMutability": "nonpayable",
      "type": "function"
    },
    {
      "constant": true,
      "inputs": [
        {
          "internalType": "bytes32",
          "name": "",
          "type": "bytes32"
        }
      ],
      "name": "commitments",
      "outputs": [
        {
          "internalType": "bool",
          "name": "",
          "type": "bool"
        }
      ],
      "payable": false,
      "stateMutability": "view",
      "type": "function"
    },
    {
      "constant": true,
      "inputs": [],
      "name": "currentRootIndex",
      "outputs": [
        {
          "internalType": "uint32",
          "name": "",
          "type": "uint32"
        }
      ],
      "payable": false,
      "stateMutability": "view",
      "type": "function"
    },
    {
      "constant": true,
      "inputs": [],
      "name": "d_denomination",
      "outputs": [
        {
          "internalType": "uint256",
          "name": "",
          "type": "uint256"
        }
      ],
      "payable": false,
      "stateMutability": "view",
      "type": "function"
    },
    {
      "constant": false,
      "inputs": [
        {
          "internalType": "bytes32",
          "name": "_commitment",
          "type": "bytes32"
        }
      ],
      "name": "deposit",
      "outputs": [],
      "payable": true,
      "stateMutability": "payable",
      "type": "function"
    },
    {
      "constant": true,
      "inputs": [
        {
          "internalType": "uint256",
          "name": "",
          "type": "uint256"
        }
      ],
      "name": "filledSubtrees",
      "outputs": [
        {
          "internalType": "bytes32",
          "name": "",
          "type": "bytes32"
        }
      ],
      "payable": false,
      "stateMutability": "view",
      "type": "function"
    },
    {
      "constant": true,
      "inputs": [],
      "name": "getLastRoot",
      "outputs": [
        {
          "internalType": "bytes32",
          "name": "",
          "type": "bytes32"
        }
      ],
      "payable": false,
      "stateMutability": "view",
      "type": "function"
    },
    {
      "constant": true,
      "inputs": [
        {
          "internalType": "bytes32",
          "name": "_left",
          "type": "bytes32"
        },
        {
          "internalType": "bytes32",
          "name": "_right",
          "type": "bytes32"
        }
      ],
      "name": "hashLeftRight",
      "outputs": [
        {
          "internalType": "bytes32",
          "name": "",
          "type": "bytes32"
        }
      ],
      "payable": false,
      "stateMutability": "pure",
      "type": "function"
    },
    {
      "constant": true,
      "inputs": [
        {
          "internalType": "bytes32",
          "name": "_root",
          "type": "bytes32"
        }
      ],
      "name": "isKnownRoot",
      "outputs": [
        {
          "internalType": "bool",
          "name": "",
          "type": "bool"
        }
      ],
      "payable": false,
      "stateMutability": "view",
      "type": "function"
    },
    {
      "constant": true,
      "inputs": [
        {
          "internalType": "bytes32",
          "name": "_rwdHash",
          "type": "bytes32"
        }
      ],
      "name": "isRedeem",
      "outputs": [
        {
          "internalType": "bool",
          "name": "",
          "type": "bool"
        }
      ],
      "payable": false,
      "stateMutability": "view",
      "type": "function"
    },
    {
      "constant": true,
      "inputs": [
        {
          "internalType": "bytes32[]",
          "name": "_nullifierHashes",
          "type": "bytes32[]"
        }
      ],
      "name": "isRedeemArray",
      "outputs": [
        {
          "internalType": "bool[]",
          "name": "redeem",
          "type": "bool[]"
        }
      ],
      "payable": false,
      "stateMutability": "view",
      "type": "function"
    },
    {
      "constant": true,
      "inputs": [
        {
          "internalType": "bytes32",
          "name": "_rroot",
          "type": "bytes32"
        }
      ],
      "name": "isRewardRoot",
      "outputs": [
        {
          "internalType": "bool",
          "name": "",
          "type": "bool"
        }
      ],
      "payable": false,
      "stateMutability": "view",
      "type": "function"
    },
    {
      "constant": true,
      "inputs": [
        {
          "internalType": "bytes32",
          "name": "_wdrHash",
          "type": "bytes32"
        }
      ],
      "name": "isSpent",
      "outputs": [
        {
          "internalType": "bool",
          "name": "",
          "type": "bool"
        }
      ],
      "payable": false,
      "stateMutability": "view",
      "type": "function"
    },
    {
      "constant": true,
      "inputs": [
        {
          "internalType": "bytes32[]",
          "name": "_nullifierHashes",
          "type": "bytes32[]"
        }
      ],
      "name": "isSpentArray",
      "outputs": [
        {
          "internalType": "bool[]",
          "name": "spent",
          "type": "bool[]"
        }
      ],
      "payable": false,
      "stateMutability": "view",
      "type": "function"
    },
    {
      "constant": true,
      "inputs": [],
      "name": "levels",
      "outputs": [
        {
          "internalType": "uint32",
          "name": "",
          "type": "uint32"
        }
      ],
      "payable": false,
      "stateMutability": "view",
      "type": "function"
    },
    {
      "constant": true,
      "inputs": [],
      "name": "nextIndex",
      "outputs": [
        {
          "internalType": "uint32",
          "name": "",
          "type": "uint32"
        }
      ],
      "payable": false,
      "stateMutability": "view",
      "type": "function"
    },
    {
      "constant": true,
      "inputs": [
        {
          "internalType": "bytes32",
          "name": "",
          "type": "bytes32"
        }
      ],
      "name": "nullifierHashes",
      "outputs": [
        {
          "internalType": "bool",
          "name": "",
          "type": "bool"
        }
      ],
      "payable": false,
      "stateMutability": "view",
      "type": "function"
    },
    {
      "constant": true,
      "inputs": [],
      "name": "operator",
      "outputs": [
        {
          "internalType": "address",
          "name": "",
          "type": "address"
        }
      ],
      "payable": false,
      "stateMutability": "view",
      "type": "function"
    },
    {
      "constant": true,
      "inputs": [],
      "name": "r_denomination",
      "outputs": [
        {
          "internalType": "uint256",
          "name": "",
          "type": "uint256"
        }
      ],
      "payable": false,
      "stateMutability": "view",
      "type": "function"
    },
    {
      "constant": false,
      "inputs": [
        {
          "internalType": "bytes",
          "name": "_rproof",
          "type": "bytes"
        },
        {
          "internalType": "bytes32",
          "name": "_rroot",
          "type": "bytes32"
        },
        {
          "internalType": "bytes32",
          "name": "_rwdHash",
          "type": "bytes32"
        },
        {
          "internalType": "address payable",
          "name": "_recipient",
          "type": "address"
        },
        {
          "internalType": "address payable",
          "name": "_relayer",
          "type": "address"
        },
        {
          "internalType": "uint256",
          "name": "_fee",
          "type": "uint256"
        },
        {
          "internalType": "uint256",
          "name": "_reward",
          "type": "uint256"
        }
      ],
      "name": "reward",
      "outputs": [],
      "payable": true,
      "stateMutability": "payable",
      "type": "function"
    },
    {
      "constant": true,
      "inputs": [],
      "name": "rewardCurrentBlocknum",
      "outputs": [
        {
          "internalType": "uint32",
          "name": "",
          "type": "uint32"
        }
      ],
      "payable": false,
      "stateMutability": "view",
      "type": "function"
    },
    {
      "constant": true,
      "inputs": [],
      "name": "rewardCurrentRoot",
      "outputs": [
        {
          "internalType": "bytes32",
          "name": "",
          "type": "bytes32"
        }
      ],
      "payable": false,
      "stateMutability": "view",
      "type": "function"
    },
    {
      "constant": true,
      "inputs": [],
      "name": "rewardNextBlocknum",
      "outputs": [
        {
          "internalType": "uint32",
          "name": "",
          "type": "uint32"
        }
      ],
      "payable": false,
      "stateMutability": "view",
      "type": "function"
    },
    {
      "constant": true,
      "inputs": [],
      "name": "rewardNextRoot",
      "outputs": [
        {
          "internalType": "bytes32",
          "name": "",
          "type": "bytes32"
        }
      ],
      "payable": false,
      "stateMutability": "view",
      "type": "function"
    },
    {
      "constant": true,
      "inputs": [
        {
          "internalType": "bytes32",
          "name": "",
          "type": "bytes32"
        }
      ],
      "name": "rewardNullifierHashes",
      "outputs": [
        {
          "internalType": "bool",
          "name": "",
          "type": "bool"
        }
      ],
      "payable": false,
      "stateMutability": "view",
      "type": "function"
    },
    {
      "constant": true,
      "inputs": [],
      "name": "rewardVerifier",
      "outputs": [
        {
          "internalType": "contract RVerifier",
          "name": "",
          "type": "address"
        }
      ],
      "payable": false,
      "stateMutability": "view",
      "type": "function"
    },
    {
      "constant": true,
      "inputs": [
        {
          "internalType": "uint256",
          "name": "",
          "type": "uint256"
        }
      ],
      "name": "roots",
      "outputs": [
        {
          "internalType": "bytes32",
          "name": "",
          "type": "bytes32"
        }
      ],
      "payable": false,
      "stateMutability": "view",
      "type": "function"
    },
    {
      "constant": false,
      "inputs": [
        {
          "internalType": "address",
          "name": "_newVerifier",
          "type": "address"
        }
      ],
      "name": "updateRewardVerifier",
      "outputs": [],
      "payable": false,
      "stateMutability": "nonpayable",
      "type": "function"
    },
    {
      "constant": false,
      "inputs": [
        {
          "internalType": "address",
          "name": "_newVerifier",
          "type": "address"
        }
      ],
      "name": "updateWithdrawVerifier",
      "outputs": [],
      "payable": false,
      "stateMutability": "nonpayable",
      "type": "function"
    },
    {
      "constant": false,
      "inputs": [
        {
          "internalType": "bytes",
          "name": "_proof",
          "type": "bytes"
        },
        {
          "internalType": "bytes32",
          "name": "_root",
          "type": "bytes32"
        },
        {
          "internalType": "bytes32",
          "name": "_wdrHash",
          "type": "bytes32"
        },
        {
          "internalType": "bytes32",
          "name": "_rwdHash",
          "type": "bytes32"
        },
        {
          "internalType": "address payable",
          "name": "_recipient",
          "type": "address"
        },
        {
          "internalType": "address payable",
          "name": "_relayer",
          "type": "address"
        },
        {
          "internalType": "uint256",
          "name": "_fee",
          "type": "uint256"
        },
        {
          "internalType": "uint256",
          "name": "_refund",
          "type": "uint256"
        }
      ],
      "name": "withdraw",
      "outputs": [],
      "payable": true,
      "stateMutability": "payable",
      "type": "function"
    },
    {
      "constant": true,
      "inputs": [],
      "name": "withdrawVerifier",
      "outputs": [
        {
          "internalType": "contract WVerifier",
          "name": "",
          "type": "address"
        }
      ],
      "payable": false,
      "stateMutability": "view",
      "type": "function"
    },
    {
      "constant": true,
      "inputs": [
        {
          "internalType": "uint256",
          "name": "",
          "type": "uint256"
        }
      ],
      "name": "zeros",
      "outputs": [
        {
          "internalType": "bytes32",
          "name": "",
          "type": "bytes32"
        }
      ],
      "payable": false,
      "stateMutability": "view",
      "type": "function"
    }
  ],
  "bytecode": "0x60806040526000600360006101000a81548163ffffffff021916908363ffffffff1602179055506000600360046101000a81548163ffffffff021916908363ffffffff1602179055503480156200005557600080fd5b506040516200347f3803806200347f833981810160405260e08110156200007b57600080fd5b810190808051906020019092919080519060200190929190805190602001909291908051906020019092919080519060200190929190805190602001909291908051906020019092919050505086868686868686828260008263ffffffff161162000132576040517f08c379a0000000000000000000000000000000000000000000000000000000008152600401808060200182810382526027815260200180620033dd6027913960400191505060405180910390fd5b60208263ffffffff161062000193576040517f08c379a0000000000000000000000000000000000000000000000000000000008152600401808060200182810382526022815260200180620034046022913960400191505060405180910390fd5b816000806101000a81548163ffffffff021916908363ffffffff1602179055508061271760046101000a81548163ffffffff021916908363ffffffff16021790555060007f2fe54c60d3acabf3343a35b6eba15db4821b340f76e741e2249685ed4899af6c60001b9050600281908060018154018082558091505090600182039060005260206000200160009091929091909150555060018190806001815401808255809150509060018203906000526020600020016000909192909190915055506000600190505b6000809054906101000a900463ffffffff1663ffffffff168163ffffffff161015620002fc576200029482836200055960201b60201c565b91506002829080600181540180825580915050906001820390600052602060002001600090919290919091505550600182908060018154018082558091505090600182039060005260206000200160009091929091909150555080806001019150506200025c565b506200030f81826200055960201b60201c565b6004600061271081106200031f57fe5b01819055506004600061271081106200033457fe5b0154612714819055504361271560006101000a81548163ffffffff021916908363ffffffff1602179055506004600061271081106200036f57fe5b0154612716819055504361271760006101000a81548163ffffffff021916908363ffffffff160217905550505050600161271760086101000a81548160ff0219169083151502179055506000851162000414576040517f08c379a000000000000000000000000000000000000000000000000000000000815260040180806020018281038252602d81526020018062003426602d913960400191505060405180910390fd5b600084116200046f576040517f08c379a000000000000000000000000000000000000000000000000000000000815260040180806020018281038252602c81526020018062003453602c913960400191505060405180910390fd5b8661271d60006101000a81548173ffffffffffffffffffffffffffffffffffffffff021916908373ffffffffffffffffffffffffffffffffffffffff1602179055508561271e60006101000a81548173ffffffffffffffffffffffffffffffffffffffff021916908373ffffffffffffffffffffffffffffffffffffffff1602179055508061271f60006101000a81548173ffffffffffffffffffffffffffffffffffffffff021916908373ffffffffffffffffffffffffffffffffffffffff160217905550846127188190555083612719819055505050505050505050505050505050620006af565b6000606060026040519080825280602002602001820160405280156200058e5781602001602082028038833980820191505090505b5090508360001c81600081518110620005a357fe5b6020026020010181815250508260001c81600181518110620005c157fe5b602002602001018181525050600073__Hasher________________________________63c4420fb4836040518263ffffffff1660e01b81526004018080602001828103825283818151815260200191508051906020019060200280838360005b838110156200063e57808201518184015260208101905062000621565b505050509050019250505060206040518083038186803b1580156200066257600080fd5b505af415801562000677573d6000803e3d6000fd5b505050506040513d60208110156200068e57600080fd5b810190808051906020019092919050505090508060001b9250505092915050565b612d1e80620006bf6000396000f3fe6080604052600436106102045760003560e01c8063839df94511610118578063c526cb5f116100a0578063e82955881161006f578063e829558814610c5d578063ec73295914610cac578063f178e47c14610cd7578063f9406cf314610d26578063fc7e9c6f14610d7d57610204565b8063c526cb5f14610b55578063cd87a3b414610ba8578063e16f7cd414610bdf578063e5285dcc14610c0a57610204565b8063b214faa5116100e7578063b214faa5146108e0578063b74336911461090e578063ba70f757146109fa578063c2b40ae414610a25578063c3f436b714610a7457610204565b8063839df94514610724578063864eb1641461077757806390eeb02b146107ce5780639fa12d0b1461080557610204565b8063414a37ba1161019b5780636d9833e31161016a5780636d9833e3146105d757806375c231281461062a57806378c666971461067b5780638036bcc9146106a657806383922d29146106f957610204565b8063414a37ba146104cd57806343d01520146104f85780634ecf518b14610549578063570ca7351461058057610204565b80632e2d40ce116101d75780632e2d40ce146103db57806338bf282e146104125780633a1fa6431461046b5780633ce0de9b1461049657610204565b806306394c9b1461020957806309087f0c1461025a5780631610f7621461033557806317cc915c14610388575b600080fd5b34801561021557600080fd5b506102586004803603602081101561022c57600080fd5b81019080803573ffffffffffffffffffffffffffffffffffffffff169060200190929190505050610db4565b005b34801561026657600080fd5b506102de6004803603602081101561027d57600080fd5b810190808035906020019064010000000081111561029a57600080fd5b8201836020820111156102ac57600080fd5b803590602001918460208302840111640100000000831117156102ce57600080fd5b9091929391929390505050610ea0565b6040518080602001828103825283818151815260200191508051906020019060200280838360005b83811015610321578082015181840152602081019050610306565b505050509050019250505060405180910390f35b34801561034157600080fd5b5061036e6004803603602081101561035857600080fd5b8101908080359060200190929190505050610f3d565b604051808215151515815260200191505060405180910390f35b34801561039457600080fd5b506103c1600480360360208110156103ab57600080fd5b8101908080359060200190929190505050610f5e565b604051808215151515815260200191505060405180910390f35b3480156103e757600080fd5b506103f0610f7f565b604051808263ffffffff1663ffffffff16815260200191505060405180910390f35b34801561041e57600080fd5b506104556004803603604081101561043557600080fd5b810190808035906020019092919080359060200190929190505050610f96565b6040518082815260200191505060405180910390f35b34801561047757600080fd5b506104806110e4565b6040518082815260200191505060405180910390f35b3480156104a257600080fd5b506104ab6110eb565b604051808263ffffffff1663ffffffff16815260200191505060405180910390f35b3480156104d957600080fd5b506104e2611102565b6040518082815260200191505060405180910390f35b34801561050457600080fd5b506105476004803603602081101561051b57600080fd5b81019080803573ffffffffffffffffffffffffffffffffffffffff169060200190929190505050611126565b005b34801561055557600080fd5b5061055e611212565b604051808263ffffffff1663ffffffff16815260200191505060405180910390f35b34801561058c57600080fd5b50610595611227565b604051808273ffffffffffffffffffffffffffffffffffffffff1673ffffffffffffffffffffffffffffffffffffffff16815260200191505060405180910390f35b3480156105e357600080fd5b50610610600480360360208110156105fa57600080fd5b810190808035906020019092919050505061124e565b604051808215151515815260200191505060405180910390f35b34801561063657600080fd5b506106796004803603602081101561064d57600080fd5b81019080803573ffffffffffffffffffffffffffffffffffffffff1690602001909291905050506112f2565b005b34801561068757600080fd5b506106906113de565b6040518082815260200191505060405180910390f35b3480156106b257600080fd5b506106df600480360360208110156106c957600080fd5b81019080803590602001909291905050506113e5565b604051808215151515815260200191505060405180910390f35b34801561070557600080fd5b5061070e611410565b6040518082815260200191505060405180910390f35b34801561073057600080fd5b5061075d6004803603602081101561074757600080fd5b8101908080359060200190929190505050611417565b604051808215151515815260200191505060405180910390f35b34801561078357600080fd5b5061078c611438565b604051808273ffffffffffffffffffffffffffffffffffffffff1673ffffffffffffffffffffffffffffffffffffffff16815260200191505060405180910390f35b3480156107da57600080fd5b506107e361145f565b604051808263ffffffff1663ffffffff16815260200191505060405180910390f35b34801561081157600080fd5b506108896004803603602081101561082857600080fd5b810190808035906020019064010000000081111561084557600080fd5b82018360208201111561085757600080fd5b8035906020019184602083028401116401000000008311171561087957600080fd5b9091929391929390505050611475565b6040518080602001828103825283818151815260200191508051906020019060200280838360005b838110156108cc5780820151818401526020810190506108b1565b505050509050019250505060405180910390f35b61090c600480360360208110156108f657600080fd5b8101908080359060200190929190505050611512565b005b6109f8600480360361010081101561092557600080fd5b810190808035906020019064010000000081111561094257600080fd5b82018360208201111561095457600080fd5b8035906020019184600183028401116401000000008311171561097657600080fd5b9091929391929390803590602001909291908035906020019092919080359060200190929190803573ffffffffffffffffffffffffffffffffffffffff169060200190929190803573ffffffffffffffffffffffffffffffffffffffff16906020019092919080359060200190929190803590602001909291905050506116d7565b005b348015610a0657600080fd5b50610a0f611c8c565b6040518082815260200191505060405180910390f35b348015610a3157600080fd5b50610a5e60048036036020811015610a4857600080fd5b8101908080359060200190929190505050611cbb565b6040518082815260200191505060405180910390f35b610b53600480360360e0811015610a8a57600080fd5b8101908080359060200190640100000000811115610aa757600080fd5b820183602082011115610ab957600080fd5b80359060200191846001830284011164010000000083111715610adb57600080fd5b90919293919293908035906020019092919080359060200190929190803573ffffffffffffffffffffffffffffffffffffffff169060200190929190803573ffffffffffffffffffffffffffffffffffffffff1690602001909291908035906020019092919080359060200190929190505050611cd4565b005b348015610b6157600080fd5b50610b8e60048036036020811015610b7857600080fd5b81019080803590602001909291905050506121a5565b604051808215151515815260200191505060405180910390f35b348015610bb457600080fd5b50610bbd6121d9565b604051808263ffffffff1663ffffffff16815260200191505060405180910390f35b348015610beb57600080fd5b50610bf46121df565b6040518082815260200191505060405180910390f35b348015610c1657600080fd5b50610c4360048036036020811015610c2d57600080fd5b81019080803590602001909291905050506121e6565b604051808215151515815260200191505060405180910390f35b348015610c6957600080fd5b50610c9660048036036020811015610c8057600080fd5b8101908080359060200190929190505050612211565b6040518082815260200191505060405180910390f35b348015610cb857600080fd5b50610cc1612232565b6040518082815260200191505060405180910390f35b348015610ce357600080fd5b50610d1060048036036020811015610cfa57600080fd5b8101908080359060200190929190505050612256565b6040518082815260200191505060405180910390f35b348015610d3257600080fd5b50610d3b612277565b604051808273ffffffffffffffffffffffffffffffffffffffff1673ffffffffffffffffffffffffffffffffffffffff16815260200191505060405180910390f35b348015610d8957600080fd5b50610d9261229e565b604051808263ffffffff1663ffffffff16815260200191505060405180910390f35b61271f60009054906101000a900473ffffffffffffffffffffffffffffffffffffffff1673ffffffffffffffffffffffffffffffffffffffff163373ffffffffffffffffffffffffffffffffffffffff1614610e5b576040517f08c379a0000000000000000000000000000000000000000000000000000000008152600401808060200182810382526025815260200180612c906025913960400191505060405180910390fd5b8061271f60006101000a81548173ffffffffffffffffffffffffffffffffffffffff021916908373ffffffffffffffffffffffffffffffffffffffff16021790555050565b606082829050604051908082528060200260200182016040528015610ed45781602001602082028038833980820191505090505b50905060008090505b83839050811015610f3657610f03848483818110610ef757fe5b905060200201356121e6565b15610f29576001828281518110610f1657fe5b6020026020010190151590811515815250505b8080600101915050610edd565b5092915050565b61271b6020528060005260406000206000915054906101000a900460ff1681565b61271a6020528060005260406000206000915054906101000a900460ff1681565b61271560009054906101000a900463ffffffff1681565b600060606002604051908082528060200260200182016040528015610fca5781602001602082028038833980820191505090505b5090508360001c81600081518110610fde57fe5b6020026020010181815250508260001c81600181518110610ffb57fe5b602002602001018181525050600073__Hasher________________________________63c4420fb4836040518263ffffffff1660e01b81526004018080602001828103825283818151815260200191508051906020019060200280838360005b8381101561107657808201518184015260208101905061105b565b505050509050019250505060206040518083038186803b15801561109957600080fd5b505af41580156110ad573d6000803e3d6000fd5b505050506040513d60208110156110c357600080fd5b810190808051906020019092919050505090508060001b9250505092915050565b6127145481565b61271760009054906101000a900463ffffffff1681565b7f30644e72e131a029b85045b68181585d2833e84879b9709143e1f593f000000181565b61271f60009054906101000a900473ffffffffffffffffffffffffffffffffffffffff1673ffffffffffffffffffffffffffffffffffffffff163373ffffffffffffffffffffffffffffffffffffffff16146111cd576040517f08c379a0000000000000000000000000000000000000000000000000000000008152600401808060200182810382526025815260200180612c906025913960400191505060405180910390fd5b8061271e60006101000a81548173ffffffffffffffffffffffffffffffffffffffff021916908373ffffffffffffffffffffffffffffffffffffffff16021790555050565b6000809054906101000a900463ffffffff1681565b61271f60009054906101000a900473ffffffffffffffffffffffffffffffffffffffff1681565b60008060001b82141561126457600090506112ed565b6000600360009054906101000a900463ffffffff1690505b60048163ffffffff16612710811061129057fe5b01548314156112a35760019150506112ed565b60008163ffffffff1614156112b85761271090505b808060019003915050600360009054906101000a900463ffffffff1663ffffffff168163ffffffff16141561127c5760009150505b919050565b61271f60009054906101000a900473ffffffffffffffffffffffffffffffffffffffff1673ffffffffffffffffffffffffffffffffffffffff163373ffffffffffffffffffffffffffffffffffffffff1614611399576040517f08c379a0000000000000000000000000000000000000000000000000000000008152600401808060200182810382526025815260200180612c906025913960400191505060405180910390fd5b8061271d60006101000a81548173ffffffffffffffffffffffffffffffffffffffff021916908373ffffffffffffffffffffffffffffffffffffffff16021790555050565b6127195481565b600061271b600083815260200190815260200160002060009054906101000a900460ff169050919050565b6127165481565b61271c6020528060005260406000206000915054906101000a900460ff1681565b61271d60009054906101000a900473ffffffffffffffffffffffffffffffffffffffff1681565b600360009054906101000a900463ffffffff1681565b6060828290506040519080825280602002602001820160405280156114a95781602001602082028038833980820191505090505b50905060008090505b8383905081101561150b576114d88484838181106114cc57fe5b905060200201356121e6565b156114fe5760018282815181106114eb57fe5b6020026020010190151590811515815250505b80806001019150506114b2565b5092915050565b61271760089054906101000a900460ff16611595576040517f08c379a000000000000000000000000000000000000000000000000000000000815260040180806020018281038252601f8152602001807f5265656e7472616e637947756172643a207265656e7472616e742063616c6c0081525060200191505060405180910390fd5b600061271760086101000a81548160ff02191690831515021790555061271c600082815260200190815260200160002060009054906101000a900460ff1615611629576040517f08c379a0000000000000000000000000000000000000000000000000000000008152600401808060200182810382526021815260200180612bfe6021913960400191505060405180910390fd5b6000611634826122b4565b9050600161271c600084815260200190815260200160002060006101000a81548160ff02191690831515021790555061166b61260b565b817fa945e51eec50ab98c161376f0db4cf2aeba3ec92755fe2fcd388bdbbb80ff1968242604051808363ffffffff1663ffffffff1681526020018281526020019250505060405180910390a250600161271760086101000a81548160ff02191690831515021790555050565b61271760089054906101000a900460ff1661175a576040517f08c379a000000000000000000000000000000000000000000000000000000000815260040180806020018281038252601f8152602001807f5265656e7472616e637947756172643a207265656e7472616e742063616c6c0081525060200191505060405180910390fd5b600061271760086101000a81548160ff021916908315150217905550612718548211156117ef576040517f08c379a000000000000000000000000000000000000000000000000000000000815260040180806020018281038252601a8152602001807f4665652065786365656473207472616e736665722076616c756500000000000081525060200191505060405180910390fd5b61271a600087815260200190815260200160002060009054906101000a900460ff1615611867576040517f08c379a0000000000000000000000000000000000000000000000000000000008152600401808060200182810382526038815260200180612b926038913960400191505060405180910390fd5b61271a600086815260200190815260200160002060009054906101000a900460ff16156118df576040517f08c379a0000000000000000000000000000000000000000000000000000000008152600401808060200182810382526036815260200180612b5c6036913960400191505060405180910390fd5b6118e88761124e565b61195a576040517f08c379a000000000000000000000000000000000000000000000000000000000815260040180806020018281038252601c8152602001807f43616e6e6f742066696e6420796f7572206d65726b6c6520726f6f740000000081525060200191505060405180910390fd5b61271d60009054906101000a900473ffffffffffffffffffffffffffffffffffffffff1673ffffffffffffffffffffffffffffffffffffffff1663598da1d18a8a6040518060e001604052808c60001c81526020018b60001c81526020018a60001c81526020018973ffffffffffffffffffffffffffffffffffffffff1681526020018873ffffffffffffffffffffffffffffffffffffffff168152602001878152602001868152506040518463ffffffff1660e01b8152600401808060200183600760200280838360005b83811015611a41578082015181840152602081019050611a26565b505050509050018281038252858582818152602001925080828437600081840152601f19601f820116905080830192505050945050505050602060405180830381600087803b158015611a9357600080fd5b505af1158015611aa7573d6000803e3d6000fd5b505050506040513d6020811015611abd57600080fd5b8101908080519060200190929190505050611b40576040517f08c379a00000000000000000000000000000000000000000000000000000000081526004018080602001828103825260168152602001807f496e76616c69642077697468647261772070726f6f660000000000000000000081525060200191505060405180910390fd5b600161271a600088815260200190815260200160002060006101000a81548160ff021916908315150217905550600161271a600087815260200190815260200160002060006101000a81548160ff021916908315150217905550600161271b600087815260200190815260200160002060006101000a81548160ff021916908315150217905550611bd384848484612668565b8273ffffffffffffffffffffffffffffffffffffffff167fb9632a5273eccb6a6c4f89035ced459ebb3db29e0ad807721982f4960602242d85888886604051808573ffffffffffffffffffffffffffffffffffffffff1673ffffffffffffffffffffffffffffffffffffffff16815260200184815260200183815260200182815260200194505050505060405180910390a2600161271760086101000a81548160ff021916908315150217905550505050505050505050565b60006004600360009054906101000a900463ffffffff1663ffffffff166127108110611cb457fe5b0154905090565b6004816127108110611cc957fe5b016000915090505481565b61271760089054906101000a900460ff16611d57576040517f08c379a000000000000000000000000000000000000000000000000000000000815260040180806020018281038252601f8152602001807f5265656e7472616e637947756172643a207265656e7472616e742063616c6c0081525060200191505060405180910390fd5b600061271760086101000a81548160ff02191690831515021790555061271954821115611dec576040517f08c379a000000000000000000000000000000000000000000000000000000000815260040180806020018281038252601a8152602001807f4665652065786365656473207472616e736665722076616c756500000000000081525060200191505060405180910390fd5b61271b600086815260200190815260200160002060009054906101000a900460ff1615611e64576040517f08c379a0000000000000000000000000000000000000000000000000000000008152600401808060200182810382526029815260200180612c446029913960400191505060405180910390fd5b611e6d866121a5565b611edf576040517f08c379a000000000000000000000000000000000000000000000000000000000815260040180806020018281038252601c8152602001807f43616e6e6f742066696e6420796f7572206d65726b6c6520726f6f740000000081525060200191505060405180910390fd5b61271e60009054906101000a900473ffffffffffffffffffffffffffffffffffffffff1673ffffffffffffffffffffffffffffffffffffffff1663695ef6f989896040518060c001604052808b60001c81526020018a60001c81526020018973ffffffffffffffffffffffffffffffffffffffff1681526020018873ffffffffffffffffffffffffffffffffffffffff168152602001878152602001868152506040518463ffffffff1660e01b8152600401808060200183600660200280838360005b83811015611fbd578082015181840152602081019050611fa2565b505050509050018281038252858582818152602001925080828437600081840152601f19601f820116905080830192505050945050505050602060405180830381600087803b15801561200f57600080fd5b505af1158015612023573d6000803e3d6000fd5b505050506040513d602081101561203957600080fd5b81019080805190602001909291905050506120bc576040517f08c379a00000000000000000000000000000000000000000000000000000000081526004018080602001828103825260148152602001807f496e76616c6964207265776172642070726f6f6600000000000000000000000081525060200191505060405180910390fd5b600161271b600087815260200190815260200160002060006101000a81548160ff0219169083151502179055506120f5848484846128ae565b8273ffffffffffffffffffffffffffffffffffffffff167fd372214d98616c555c2fbc3e9e729a309374d6c2aa7c20e84c73c4af5e44e618858785604051808473ffffffffffffffffffffffffffffffffffffffff1673ffffffffffffffffffffffffffffffffffffffff168152602001838152602001828152602001935050505060405180910390a2600161271760086101000a81548160ff0219169083151502179055505050505050505050565b60008060001b8214156121bb57600090506121d4565b612714548214156121cf57600190506121d4565b600090505b919050565b61271081565b6127185481565b600061271a600083815260200190815260200160002060009054906101000a900460ff169050919050565b6002818154811061221e57fe5b906000526020600020016000915090505481565b7f2fe54c60d3acabf3343a35b6eba15db4821b340f76e741e2249685ed4899af6c81565b6001818154811061226357fe5b906000526020600020016000915090505481565b61271e60009054906101000a900473ffffffffffffffffffffffffffffffffffffffff1681565b600360049054906101000a900463ffffffff1681565b600080600360049054906101000a900463ffffffff1690506000809054906101000a900463ffffffff1663ffffffff16600263ffffffff160a63ffffffff168163ffffffff161415612351576040517f08c379a000000000000000000000000000000000000000000000000000000000815260040180806020018281038252602f815260200180612af5602f913960400191505060405180910390fd5b6001600360048282829054906101000a900463ffffffff160192506101000a81548163ffffffff021916908363ffffffff160217905550600083905060008060008090505b6000809054906101000a900463ffffffff1663ffffffff168163ffffffff16101561247457600060028663ffffffff16816123cd57fe5b0663ffffffff1614156124245783925060028163ffffffff16815481106123f057fe5b906000526020600020015491508360018263ffffffff168154811061241157fe5b9060005260206000200181905550612448565b60018163ffffffff168154811061243757fe5b906000526020600020015492508391505b6124528383610f96565b935060028563ffffffff168161246457fe5b0494508080600101915050612396565b5061271063ffffffff166001600360009054906101000a900463ffffffff160163ffffffff16816124a157fe5b06600360006101000a81548163ffffffff021916908363ffffffff160217905550826004600360009054906101000a900463ffffffff1663ffffffff1661271081106124e957fe5b018190555061271760049054906101000a900463ffffffff1663ffffffff1661271760009054906101000a900463ffffffff16430363ffffffff16106125ea576127165461271481905550826127168190555061271760009054906101000a900463ffffffff1661271560006101000a81548163ffffffff021916908363ffffffff1602179055504361271760006101000a81548163ffffffff021916908363ffffffff1602179055507f1606ca2afee2c3dcc26cae165c508e922c6f2d01648c2ba5752393b1eb8e6c9d61271560009054906101000a900463ffffffff16604051808263ffffffff1663ffffffff16815260200191505060405180910390a15b6001600360049054906101000a900463ffffffff1603945050505050919050565b612718543414612666576040517f08c379a0000000000000000000000000000000000000000000000000000000008152600401808060200182810382526038815260200180612b246038913960400191505060405180910390fd5b565b600034146126c1576040517f08c379a0000000000000000000000000000000000000000000000000000000008152600401808060200182810382526035815260200180612cb56035913960400191505060405180910390fd5b6000811461271a576040517f08c379a0000000000000000000000000000000000000000000000000000000008152600401808060200182810382526034815260200180612bca6034913960400191505060405180910390fd5b60008473ffffffffffffffffffffffffffffffffffffffff1683612718540360405180600001905060006040518083038185875af1925050503d806000811461277f576040519150601f19603f3d011682016040523d82523d6000602084013e612784565b606091505b50509050806127de576040517f08c379a0000000000000000000000000000000000000000000000000000000008152600401808060200182810382526025815260200180612c1f6025913960400191505060405180910390fd5b60008311156128a7578373ffffffffffffffffffffffffffffffffffffffff168360405180600001905060006040518083038185875af1925050503d8060008114612845576040519150601f19603f3d011682016040523d82523d6000602084013e61284a565b606091505b505080915050806128a6576040517f08c379a0000000000000000000000000000000000000000000000000000000008152600401808060200182810382526023815260200180612c6d6023913960400191505060405180910390fd5b5b5050505050565b60003414612907576040517f08c379a0000000000000000000000000000000000000000000000000000000008152600401808060200182810382526035815260200180612cb56035913960400191505060405180910390fd5b60008114612960576040517f08c379a0000000000000000000000000000000000000000000000000000000008152600401808060200182810382526034815260200180612bca6034913960400191505060405180910390fd5b60008473ffffffffffffffffffffffffffffffffffffffff1683612719540360405180600001905060006040518083038185875af1925050503d80600081146129c5576040519150601f19603f3d011682016040523d82523d6000602084013e6129ca565b606091505b5050905080612a24576040517f08c379a0000000000000000000000000000000000000000000000000000000008152600401808060200182810382526025815260200180612c1f6025913960400191505060405180910390fd5b6000831115612aed578373ffffffffffffffffffffffffffffffffffffffff168360405180600001905060006040518083038185875af1925050503d8060008114612a8b576040519150601f19603f3d011682016040523d82523d6000602084013e612a90565b606091505b50508091505080612aec576040517f08c379a0000000000000000000000000000000000000000000000000000000008152600401808060200182810382526023815260200180612c6d6023913960400191505060405180910390fd5b5b505050505056fe4d65726b6c6520747265652069732066756c6c2e204e6f206d6f7265206c656166732063616e206265206164646564506c656173652073656e6420606d697844656e6f6d696e6174696f6e602045544820616c6f6e672077697468207472616e73616374696f6e54686520726577617264206e6f746520686173206265656e20616c7265616479207370656e7420666f72207769746864726177696e67546865207769746864726177206e6f746520686173206265656e20616c7265616479207370656e7420666f72207769746864726177696e67526566756e642076616c756520697320737570706f73656420746f206265207a65726f20666f722045544820696e7374616e636554686520636f6d6d69746d656e7420686173206265656e207375626d69747465647061796d656e7420746f205f726563697069656e7420646964206e6f7420676f207468727554686520726577617264206e6f746520686173206265656e20616c72656164792072656465656d65647061796d656e7420746f205f72656c6179657220646964206e6f7420676f20746872754f6e6c79206f70657261746f722063616e2063616c6c20746869732066756e6374696f6e2e4d6573736167652076616c756520697320737570706f73656420746f206265207a65726f20666f722045544820696e7374616e6365a265627a7a7231582031022f220e085ba8b332f14d0fbe74b6ac0043b0955a62eb69ddbd5be9121f7a64736f6c634300051100325f747265654c6576656c732073686f756c642062652067726561746572207468616e207a65726f5f747265654c6576656c732073686f756c64206265206c657373207468616e2033324465706f7369742064656e6f6d696e6174696f6e2073686f756c642062652067726561746572207468616e20305265776172642064656e6f6d696e6174696f6e2073686f756c642062652067726561746572207468616e2030",
  "source": "pragma solidity ^0.5.17;\n\nimport \"./AMR.sol\";\n\ncontract ETHAMR is AMR {\n  constructor(\n    WVerifier _withdrawVerifier,\n    RVerifier _rewardVerifier,\n    uint256 _d_denomination,\n    uint256 _r_denomination,\n    uint32 _merkleTreeHeight,\n    uint32 _blockCount,\n    address _operator\n  ) AMR(_withdrawVerifier, _rewardVerifier, _d_denomination, _r_denomination, _merkleTreeHeight, _blockCount, _operator) public {\n  }\n\n  function _processDeposit() internal {\n    require(msg.value == d_denomination, \"Please send `mixDenomination` ETH along with transaction\");\n  }\n\n  function _processWithdraw(address payable _recipient, address payable _relayer, uint256 _fee, uint256 _refund) internal {\n    // sanity checks\n    require(msg.value == 0, \"Message value is supposed to be zero for ETH instance\");\n    require(_refund == 0, \"Refund value is supposed to be zero for ETH instance\");\n\n    (bool success, ) = _recipient.call.value(d_denomination - _fee)(\"\");\n    require(success, \"payment to _recipient did not go thru\");\n    if (_fee > 0) {\n      (success, ) = _relayer.call.value(_fee)(\"\");\n      require(success, \"payment to _relayer did not go thru\");\n    }\n  }\n\n  function _processReward(address payable _recipient, address payable _relayer, uint256 _fee, uint256 _reward) internal {\n    // sanity checks\n    require(msg.value == 0, \"Message value is supposed to be zero for ETH instance\");\n    require(_reward== 0, \"Refund value is supposed to be zero for ETH instance\");\n\n    (bool success, ) = _recipient.call.value(r_denomination - _fee)(\"\");\n    require(success, \"payment to _recipient did not go thru\");\n    if (_fee > 0) {\n      (success, ) = _relayer.call.value(_fee)(\"\");\n      require(success, \"payment to _relayer did not go thru\");\n    }\n  }\n}\n",
  "sourcePath": "/home/devildeer/Documents/amr-prototype/amr-poseidon-clean/contracts/ETHAMR.sol",
  "compiler": {
    "name": "solc",
    "version": "0.5.17+commit.d19bba13.Emscripten.clang"
  },
  "schemaVersion": "3.2.3",
  "updatedAt": "2020-08-29T19:12:10.889Z",
  "networkType": "ethereum",
  "devdoc": {
    "methods": {
      "changeOperator(address)": {
        "details": "operator can change his address "
      },
      "deposit(bytes32)": {
        "details": "Deposit funds into the contract. The caller must send (for ETH) or approve (for ERC20) value equal to or `denomination` of this instance.",
        "params": {
          "_commitment": "the note commitment, which is PedersenHash(nullifier + secret)"
        }
      },
      "getLastRoot()": {
        "details": "Returns the last root"
      },
      "isKnownRoot(bytes32)": {
        "details": "Whether the root is present in the root history"
      },
      "isRedeemArray(bytes32[])": {
        "details": "whether an array of notes is already spent "
      },
      "isSpent(bytes32)": {
        "details": "whether a note is already spent "
      },
      "isSpentArray(bytes32[])": {
        "details": "whether an array of notes is already spent "
      },
      "updateWithdrawVerifier(address)": {
        "details": "allow operator to update SNARK verification keys. This is needed to update keys after the final trusted setup ceremony is held. After that operator rights are supposed to be transferred to zero address"
      },
      "withdraw(bytes,bytes32,bytes32,bytes32,address,address,uint256,uint256)": {
        "details": "Withdraw a deposit from the contract. `proof` is a zkSNARK proof data, and input is an array of circuit public inputs `input` array consists of: - merkle root of all deposits in the contract - hash of unique deposit nullifier to prevent double spends - the recipient of funds - optional fee that goes to the transaction sender (usually a relay)"
      }
    }
  },
  "userdoc": {
    "methods": {}
  }
}