{
  "contractName": "MerkleTreeWithHistoryMock",
  "abi": [
    {
      "inputs": [
        {
          "internalType": "uint32",
          "name": "_treeLevels",
          "type": "uint32"
        },
        {
          "internalType": "uint32",
          "name": "_blockCount",
          "type": "uint32"
        }
      ],
      "payable": false,
      "stateMutability": "nonpayable",
      "type": "constructor"
    },
    {
      "anonymous": false,
      "inputs": [
        {
          "indexed": false,
          "internalType": "uint32",
          "name": "updateAtBlock",
          "type": "uint32"
        }
      ],
      "name": "RewardUpdate",
      "type": "event"
    },
    {
      "constant": true,
      "inputs": [],
      "name": "FIELD_SIZE",
      "outputs": [
        {
          "internalType": "uint256",
          "name": "",
          "type": "uint256"
        }
      ],
      "payable": false,
      "stateMutability": "view",
      "type": "function"
    },
    {
      "constant": true,
      "inputs": [],
      "name": "ROOT_HISTORY_SIZE",
      "outputs": [
        {
          "internalType": "uint32",
          "name": "",
          "type": "uint32"
        }
      ],
      "payable": false,
      "stateMutability": "view",
      "type": "function"
    },
    {
      "constant": true,
      "inputs": [],
      "name": "ZERO_VALUE",
      "outputs": [
        {
          "internalType": "uint256",
          "name": "",
          "type": "uint256"
        }
      ],
      "payable": false,
      "stateMutability": "view",
      "type": "function"
    },
    {
      "constant": true,
      "inputs": [],
      "name": "currentRootIndex",
      "outputs": [
        {
          "internalType": "uint32",
          "name": "",
          "type": "uint32"
        }
      ],
      "payable": false,
      "stateMutability": "view",
      "type": "function"
    },
    {
      "constant": true,
      "inputs": [
        {
          "internalType": "uint256",
          "name": "",
          "type": "uint256"
        }
      ],
      "name": "filledSubtrees",
      "outputs": [
        {
          "internalType": "bytes32",
          "name": "",
          "type": "bytes32"
        }
      ],
      "payable": false,
      "stateMutability": "view",
      "type": "function"
    },
    {
      "constant": true,
      "inputs": [],
      "name": "getLastRoot",
      "outputs": [
        {
          "internalType": "bytes32",
          "name": "",
          "type": "bytes32"
        }
      ],
      "payable": false,
      "stateMutability": "view",
      "type": "function"
    },
    {
      "constant": true,
      "inputs": [
        {
          "internalType": "bytes32",
          "name": "_left",
          "type": "bytes32"
        },
        {
          "internalType": "bytes32",
          "name": "_right",
          "type": "bytes32"
        }
      ],
      "name": "hashLeftRight",
      "outputs": [
        {
          "internalType": "bytes32",
          "name": "",
          "type": "bytes32"
        }
      ],
      "payable": false,
      "stateMutability": "pure",
      "type": "function"
    },
    {
      "constant": true,
      "inputs": [
        {
          "internalType": "bytes32",
          "name": "_root",
          "type": "bytes32"
        }
      ],
      "name": "isKnownRoot",
      "outputs": [
        {
          "internalType": "bool",
          "name": "",
          "type": "bool"
        }
      ],
      "payable": false,
      "stateMutability": "view",
      "type": "function"
    },
    {
      "constant": true,
      "inputs": [
        {
          "internalType": "bytes32",
          "name": "_rroot",
          "type": "bytes32"
        }
      ],
      "name": "isRewardRoot",
      "outputs": [
        {
          "internalType": "bool",
          "name": "",
          "type": "bool"
        }
      ],
      "payable": false,
      "stateMutability": "view",
      "type": "function"
    },
    {
      "constant": true,
      "inputs": [],
      "name": "levels",
      "outputs": [
        {
          "internalType": "uint32",
          "name": "",
          "type": "uint32"
        }
      ],
      "payable": false,
      "stateMutability": "view",
      "type": "function"
    },
    {
      "constant": true,
      "inputs": [],
      "name": "nextIndex",
      "outputs": [
        {
          "internalType": "uint32",
          "name": "",
          "type": "uint32"
        }
      ],
      "payable": false,
      "stateMutability": "view",
      "type": "function"
    },
    {
      "constant": true,
      "inputs": [],
      "name": "rewardCurrentBlocknum",
      "outputs": [
        {
          "internalType": "uint32",
          "name": "",
          "type": "uint32"
        }
      ],
      "payable": false,
      "stateMutability": "view",
      "type": "function"
    },
    {
      "constant": true,
      "inputs": [],
      "name": "rewardCurrentRoot",
      "outputs": [
        {
          "internalType": "bytes32",
          "name": "",
          "type": "bytes32"
        }
      ],
      "payable": false,
      "stateMutability": "view",
      "type": "function"
    },
    {
      "constant": true,
      "inputs": [],
      "name": "rewardNextBlocknum",
      "outputs": [
        {
          "internalType": "uint32",
          "name": "",
          "type": "uint32"
        }
      ],
      "payable": false,
      "stateMutability": "view",
      "type": "function"
    },
    {
      "constant": true,
      "inputs": [],
      "name": "rewardNextRoot",
      "outputs": [
        {
          "internalType": "bytes32",
          "name": "",
          "type": "bytes32"
        }
      ],
      "payable": false,
      "stateMutability": "view",
      "type": "function"
    },
    {
      "constant": true,
      "inputs": [
        {
          "internalType": "uint256",
          "name": "",
          "type": "uint256"
        }
      ],
      "name": "roots",
      "outputs": [
        {
          "internalType": "bytes32",
          "name": "",
          "type": "bytes32"
        }
      ],
      "payable": false,
      "stateMutability": "view",
      "type": "function"
    },
    {
      "constant": true,
      "inputs": [
        {
          "internalType": "uint256",
          "name": "",
          "type": "uint256"
        }
      ],
      "name": "zeros",
      "outputs": [
        {
          "internalType": "bytes32",
          "name": "",
          "type": "bytes32"
        }
      ],
      "payable": false,
      "stateMutability": "view",
      "type": "function"
    },
    {
      "constant": false,
      "inputs": [
        {
          "internalType": "bytes32",
          "name": "_leaf",
          "type": "bytes32"
        }
      ],
      "name": "insert",
      "outputs": [],
      "payable": false,
      "stateMutability": "nonpayable",
      "type": "function"
    }
  ],
  "bytecode": "0x60806040526000600360006101000a81548163ffffffff021916908363ffffffff1602179055506000600360046101000a81548163ffffffff021916908363ffffffff1602179055503480156200005557600080fd5b50604051620010d7380380620010d7833981810160405260408110156200007b57600080fd5b810190808051906020019092919080519060200190929190505050818160008263ffffffff1611620000f9576040517f08c379a00000000000000000000000000000000000000000000000000000000081526004018080602001828103825260278152602001806200108e6027913960400191505060405180910390fd5b60208263ffffffff16106200015a576040517f08c379a0000000000000000000000000000000000000000000000000000000008152600401808060200182810382526022815260200180620010b56022913960400191505060405180910390fd5b816000806101000a81548163ffffffff021916908363ffffffff1602179055508061271760046101000a81548163ffffffff021916908363ffffffff16021790555060007f2fe54c60d3acabf3343a35b6eba15db4821b340f76e741e2249685ed4899af6c60001b9050600281908060018154018082558091505090600182039060005260206000200160009091929091909150555060018190806001815401808255809150509060018203906000526020600020016000909192909190915055506000600190505b6000809054906101000a900463ffffffff1663ffffffff168163ffffffff161015620002c3576200025b82836200036c60201b60201c565b915060028290806001815401808255809150509060018203906000526020600020016000909192909190915055506001829080600181540180825580915050906001820390600052602060002001600090919290919091505550808060010191505062000223565b50620002d681826200036c60201b60201c565b600460006127108110620002e657fe5b0181905550600460006127108110620002fb57fe5b0154612714819055504361271560006101000a81548163ffffffff021916908363ffffffff1602179055506004600061271081106200033657fe5b0154612716819055504361271760006101000a81548163ffffffff021916908363ffffffff1602179055505050505050620004c2565b600060606002604051908082528060200260200182016040528015620003a15781602001602082028038833980820191505090505b5090508360001c81600081518110620003b657fe5b6020026020010181815250508260001c81600181518110620003d457fe5b602002602001018181525050600073__Hasher________________________________63c4420fb4836040518263ffffffff1660e01b81526004018080602001828103825283818151815260200191508051906020019060200280838360005b838110156200045157808201518184015260208101905062000434565b505050509050019250505060206040518083038186803b1580156200047557600080fd5b505af41580156200048a573d6000803e3d6000fd5b505050506040513d6020811015620004a157600080fd5b810190808051906020019092919050505090508060001b9250505092915050565b610bbc80620004d26000396000f3fe608060405234801561001057600080fd5b50600436106101165760003560e01c806390eeb02b116100a2578063cd87a3b411610071578063cd87a3b414610383578063e8295588146103ad578063ec732959146103ef578063f178e47c1461040d578063fc7e9c6f1461044f57610116565b806390eeb02b146102b3578063ba70f757146102dd578063c2b40ae4146102fb578063c526cb5f1461033d57610116565b80633ce0de9b116100e95780633ce0de9b146101dd578063414a37ba146102075780634ecf518b146102255780636d9833e31461024f57806383922d291461029557610116565b80632d287e431461011b5780632e2d40ce1461014957806338bf282e146101735780633a1fa643146101bf575b600080fd5b6101476004803603602081101561013157600080fd5b8101908080359060200190929190505050610479565b005b610151610486565b604051808263ffffffff1663ffffffff16815260200191505060405180910390f35b6101a96004803603604081101561018957600080fd5b81019080803590602001909291908035906020019092919050505061049d565b6040518082815260200191505060405180910390f35b6101c76105eb565b6040518082815260200191505060405180910390f35b6101e56105f2565b604051808263ffffffff1663ffffffff16815260200191505060405180910390f35b61020f610609565b6040518082815260200191505060405180910390f35b61022d61062d565b604051808263ffffffff1663ffffffff16815260200191505060405180910390f35b61027b6004803603602081101561026557600080fd5b8101908080359060200190929190505050610642565b604051808215151515815260200191505060405180910390f35b61029d6106e6565b6040518082815260200191505060405180910390f35b6102bb6106ed565b604051808263ffffffff1663ffffffff16815260200191505060405180910390f35b6102e5610703565b6040518082815260200191505060405180910390f35b6103276004803603602081101561031157600080fd5b8101908080359060200190929190505050610732565b6040518082815260200191505060405180910390f35b6103696004803603602081101561035357600080fd5b810190808035906020019092919050505061074b565b604051808215151515815260200191505060405180910390f35b61038b61077f565b604051808263ffffffff1663ffffffff16815260200191505060405180910390f35b6103d9600480360360208110156103c357600080fd5b8101908080359060200190929190505050610785565b6040518082815260200191505060405180910390f35b6103f76107a6565b6040518082815260200191505060405180910390f35b6104396004803603602081101561042357600080fd5b81019080803590602001909291905050506107ca565b6040518082815260200191505060405180910390f35b6104576107eb565b604051808263ffffffff1663ffffffff16815260200191505060405180910390f35b61048281610801565b5050565b61271560009054906101000a900463ffffffff1681565b6000606060026040519080825280602002602001820160405280156104d15781602001602082028038833980820191505090505b5090508360001c816000815181106104e557fe5b6020026020010181815250508260001c8160018151811061050257fe5b602002602001018181525050600073__Hasher________________________________63c4420fb4836040518263ffffffff1660e01b81526004018080602001828103825283818151815260200191508051906020019060200280838360005b8381101561057d578082015181840152602081019050610562565b505050509050019250505060206040518083038186803b1580156105a057600080fd5b505af41580156105b4573d6000803e3d6000fd5b505050506040513d60208110156105ca57600080fd5b810190808051906020019092919050505090508060001b9250505092915050565b6127145481565b61271760009054906101000a900463ffffffff1681565b7f30644e72e131a029b85045b68181585d2833e84879b9709143e1f593f000000181565b6000809054906101000a900463ffffffff1681565b60008060001b82141561065857600090506106e1565b6000600360009054906101000a900463ffffffff1690505b60048163ffffffff16612710811061068457fe5b01548314156106975760019150506106e1565b60008163ffffffff1614156106ac5761271090505b808060019003915050600360009054906101000a900463ffffffff1663ffffffff168163ffffffff1614156106705760009150505b919050565b6127165481565b600360009054906101000a900463ffffffff1681565b60006004600360009054906101000a900463ffffffff1663ffffffff16612710811061072b57fe5b0154905090565b600481612710811061074057fe5b016000915090505481565b60008060001b821415610761576000905061077a565b61271454821415610775576001905061077a565b600090505b919050565b61271081565b6002818154811061079257fe5b906000526020600020016000915090505481565b7f2fe54c60d3acabf3343a35b6eba15db4821b340f76e741e2249685ed4899af6c81565b600181815481106107d757fe5b906000526020600020016000915090505481565b600360049054906101000a900463ffffffff1681565b600080600360049054906101000a900463ffffffff1690506000809054906101000a900463ffffffff1663ffffffff16600263ffffffff160a63ffffffff168163ffffffff16141561089e576040517f08c379a000000000000000000000000000000000000000000000000000000000815260040180806020018281038252602f815260200180610b59602f913960400191505060405180910390fd5b6001600360048282829054906101000a900463ffffffff160192506101000a81548163ffffffff021916908363ffffffff160217905550600083905060008060008090505b6000809054906101000a900463ffffffff1663ffffffff168163ffffffff1610156109c157600060028663ffffffff168161091a57fe5b0663ffffffff1614156109715783925060028163ffffffff168154811061093d57fe5b906000526020600020015491508360018263ffffffff168154811061095e57fe5b9060005260206000200181905550610995565b60018163ffffffff168154811061098457fe5b906000526020600020015492508391505b61099f838361049d565b935060028563ffffffff16816109b157fe5b04945080806001019150506108e3565b5061271063ffffffff166001600360009054906101000a900463ffffffff160163ffffffff16816109ee57fe5b06600360006101000a81548163ffffffff021916908363ffffffff160217905550826004600360009054906101000a900463ffffffff1663ffffffff166127108110610a3657fe5b018190555061271760049054906101000a900463ffffffff1663ffffffff1661271760009054906101000a900463ffffffff16430363ffffffff1610610b37576127165461271481905550826127168190555061271760009054906101000a900463ffffffff1661271560006101000a81548163ffffffff021916908363ffffffff1602179055504361271760006101000a81548163ffffffff021916908363ffffffff1602179055507f1606ca2afee2c3dcc26cae165c508e922c6f2d01648c2ba5752393b1eb8e6c9d61271560009054906101000a900463ffffffff16604051808263ffffffff1663ffffffff16815260200191505060405180910390a15b6001600360049054906101000a900463ffffffff160394505050505091905056fe4d65726b6c6520747265652069732066756c6c2e204e6f206d6f7265206c656166732063616e206265206164646564a265627a7a72315820ea805dbbb4b04598250ec7464c3eeb54ef8788416246cbd8b6947c9d60b8b22464736f6c634300051100325f747265654c6576656c732073686f756c642062652067726561746572207468616e207a65726f5f747265654c6576656c732073686f756c64206265206c657373207468616e203332",
  "source": "pragma solidity 0.5.17;\n\nimport '../MerkleTreeWithHistory.sol';\n\ncontract MerkleTreeWithHistoryMock is MerkleTreeWithHistory {\n\n  constructor (uint32 _treeLevels, uint32 _blockCount) MerkleTreeWithHistory(_treeLevels, _blockCount) public {}\n\n  function insert(bytes32 _leaf) public {\n      _insert(_leaf);\n  }\n}\n",
  "sourcePath": "/home/devildeer/Documents/amr-prototype/amr-poseidon-clean/contracts/Mocks/MerkleTreeWithHistoryMock.sol",
  "compiler": {
    "name": "solc",
    "version": "0.5.17+commit.d19bba13.Emscripten.clang"
  },
  "schemaVersion": "3.2.3",
  "updatedAt": "2020-08-29T18:52:21.933Z",
  "devdoc": {
    "methods": {
      "getLastRoot()": {
        "details": "Returns the last root"
      },
      "isKnownRoot(bytes32)": {
        "details": "Whether the root is present in the root history"
      }
    }
  },
  "userdoc": {
    "methods": {}
  }
}